:020000040000FA
:1000000002107A8C228D23E478C8F608F6EF75F09A
:1000100012A42404F9740035F008760108F608A645
:1000200001E5361478C9F678C9E6D39400402CE689
:10003000FD1212C0860308E6FA08E6F98F828E8365
:10004000120236FFAEF075F002EDA4F58285F08362
:10005000EE8FF01202C578C91680CC78CA860308E4
:10006000E6FA08E6F9E5228523F01202A678C8E64A
:10007000FF2222021C36E709F608DFFA8046E7096C
:10008000F208DFFA803E88828C83E709F0A3DFFA6A
:100090008032E309F608DFFA8078E309F208DFFA34
:1000A000807088828C83E309F0A3DFFA8064898200
:1000B0008A83E0A3F608DFFA805889828A83E0A366
:1000C000F208DFFA804C80D280FA80C680D4806942
:1000D00080F28033801080A680EA809A80A880DA3F
:1000E00080E280CA803389828A83ECFAE493A3C8D1
:1000F000C582C8CCC583CCF0A3C8C582C8CCC58393
:10010000CCDFE9DEE7800D89828A83E493A3F608D9
:10011000DFF9ECFAA9F0EDFB2289828A83ECFAE0A0
:10012000A3C8C582C8CCC583CCF0A3C8C582C8CC3F
:10013000C583CCDFEADEE880DB89828A83E493A38F
:10014000F208DFF980CC88F0EF60010E4E60C388C2
:10015000F0ED2402B4040050B9F582EB2402B4049B
:100160000050AF23234582239000C673C2D530F7D9
:1001700007B2D563F0FF05F030E70CB2D5F4048484
:1001800063F0FF05F080018430D502F40422EF8D86
:10019000F0A4A8F0CF8CF0A428CE8DF0A42EFE22DF
:1001A000BC000BBE0029EF8DF084FFADF022E4CC43
:1001B000F875F008EF2FFFEE33FEEC33FCEE9DEC0C
:1001C000984005FCEE9DFE0FD5F0E9E4CEFD22ED52
:1001D000F8F5F0EE8420D21CFEADF075F008EF2F9C
:1001E000FFED33FD4007985006D5F0F222C398FD8D
:1001F0000FD5F0EA22C5F0F8A3E028F0C5F0F8E545
:1002000082158270021583E038F022BB010A8982D0
:100210008A83E0F5F0A3E022500687F009E719226F
:10022000BBFE07E3F5F009E3192289828A83E49390
:10023000F5F074019322BB0110E58229F582E58374
:100240003AF583E0F5F0A3E0225009E92582F8862B
:10025000F008E622BBFE0AE92582F8E2F5F008E2A2
:1002600022E5832AF583E993F5F0A3E99322BB0104
:100270000789828A830201F5500B09C5F027F7C56B
:10028000F01937F722BBFE0D09F8E325F0F3C5F0AE
:1002900019E338F322F889828A8374019325F0C523
:1002A000F0F8E4933822BB010A89828A83F0E5F0F2
:1002B000A3F0225006F709A7F01922BBFE06F3E5CA
:1002C000F009F31922F8BB0111E58229F582E583D3
:1002D0003AF583E8F0E5F0A3F0225009E92582C859
:1002E000F608A6F022BBFE09E92582C8F2E5F0086F
:1002F000F222E88FF0A4CC8BF0A42CFCE98EF0A4C1
:100300002CFC8AF0EDA42CFCEA8EF0A4CDA8F08B96
:10031000F0A42DCC3825F0FDE98FF0A42CCD35F0DC
:10032000FCEB8EF0A4FEA9F0EB8FF0A4CFC5F02E6D
:10033000CD39FEE43CFCEAA42DCE35F0FDE43CFCD6
:100340002275F008758200EF2FFFEE33FECD33CD1E
:10035000CC33CCC58233C5829BED9AEC99E582986B
:10036000400CF582EE9BFEED9AFDEC99FC0FD5F06A
:10037000D6E4CEFBE4CDFAE4CCF9A88222B800C1E1
:10038000B90059BA002DEC8BF084CFCECDFCE5F04E
:10039000CBF97818EF2FFFEE33FEED33FDEC33FC95
:1003A000EB33FB10D703994004EB99FB0FD8E5E43E
:1003B000F9FA227818EF2FFFEE33FEED33FDEC3320
:1003C000FCC933C910D7059BE99A4007EC9BFCE9AF
:1003D0009AF90FD8E0E4C9FAE4CCFB2275F010EFEB
:1003E0002FFFEE33FEED33FDCC33CCC833C810D72E
:1003F000079BEC9AE899400AED9BFDEC9AFCE89982
:10040000F80FD5F0DAE4CDFBE4CCFAE4C8F922EB3E
:100410009FF5F0EA9E42F0E99D42F0E89C45F0220B
:10042000E8600FEFC333FFEE33FEED33FDEC33FC3A
:10043000D8F122E6FB08E6F908E6FA08E6CBF8224E
:10044000ECF608EDF608EEF608EFF622ECF0A3ED78
:10045000F0A3EEF0A3EFF022D083D082E493F6086D
:10046000740193F608740293F608740393F6740407
:1004700073A42582F582E5F03583F583228A83898A
:1004800082E473EC8EF0A4CCC5F0CCCDF8EFA4CE12
:10049000C5F02DFDE43CFCE8A42EC8C5F03DFDE40C
:1004A0003CFCEFA4FFE5F028FEE43DFDE43CFC222B
:1004B000BB010689828A83E0225002E722BBFE024A
:1004C000E32289828A83E49322BB010CE58229F529
:1004D00082E5833AF583E0225006E92582F8E62298
:1004E000BBFE06E92582F8E222E58229F582E58352
:1004F0003AF583E49322BB010689828A83F0225075
:1005000002F722BBFE01F322FAE6FB0808E6F92512
:10051000F0F618E6CA3AF622D083D082F8E4937057
:1005200012740193700DA3A393F8740193F582885C
:1005300083E4737402936860EFA3A3A380DFE4F500
:1005400008F509F50AF50BF50CF50DF50E750F28F4
:10055000F51012191E121AD643A8A0120E9B121CD7
:100560002412118E1214698F0E121D235005121CB5
:100570001280E8121DCCEF30E016050DE50DD39486
:10058000504010E4F50D7508077F3F121BB2800341
:10059000E4F50DE50814B407004003020741900597
:1005A000AC75F003A4C58325F0C583730205C102B1
:1005B00005C702061F0206540206D20206F9020708
:1005C00022121DCC02071CE50E75F02012016CF5FD
:1005D0000E250CF50CE50E6012AD0C7F011217B361
:1005E000C374FF950CFD7F201217B3121DA7EF54A3
:1005F0001EFF121946121DA7EF30E0057F3F1219AA
:1006000046121DA7EF20E50302055B121DC9EF7F0F
:100610003F6006121BB202055B121B9C02055B12B7
:100620001DA7121946121DC98F0BD3E50E648094C5
:10063000804006E50B25E0F50BC3E50E6480948051
:100640005006E50BC313F50BE50E700302055BAF17
:100650000B02071CD3E50E64809480400AE50F640A
:100660008094D05002050FC3E50E64809480500A38
:10067000E50F648094304002150F121DC98F0BAF37
:100680000FEF3395E0FE121D0CC374509FFFE49EE4
:10069000FEAD100510ED3395E0FCD3ED9FEE6480C8
:1006A000F8EC6480984021E4F510D3E50F64809461
:1006B000804006E50B25E0F50BC3E50F64809480D0
:1006C0005006E50BC313F50B121DCCEF420BAF0B1D
:1006D000804A121DCCEF70051211095002050CE57D
:1006E0000E7009121DCFEF700302055B121DB3E5FA
:1006F0000F2F250CF50CFF8023E50E75F02012015D
:100700006CF50E250CF50C121DA7EF420CE50E70D2
:1007100009121DA7EF700302055BAF0C121AF2025B
:10072000055B121DCCEF60137F3F1219467F197EC7
:10073000007D007C001215AC02055BE4F5080205A3
:100740005BE50E75F01012016CF50EFF3395E0FEBF
:10075000E50A2FFFE43EFED3EF94FEEE6480948022
:100760004005750AFF8016C3EF9401EE6480948003
:100770005005E4F50A8006E50E250AF50AE50A7536
:10078000F02B84F509FF7401A807088002C333D851
:10079000FCFF121AF2121DCCEF20E00302055BE50C
:1007A0000904F50802055BE49000A2F0A3F09000B4
:1007B000A2E0FCA3E0FDC395277480F8EC64809868
:1007C000400302090BAF05E4FD12155E9000A41270
:1007D00015F77D0112155E9000A61215F7121CC2C6
:1007E0009000A9EEF0A3EFF09000A6E0FEA3D312D4
:1007F0001612402B9000A9E0FEA3E0FF9000A7E0B6
:100800002FFD9000A6E03ED312161F40129000A7C5
:10081000E02FFF9000A6E03E9000A4F0A3EFF09040
:1008200000A6E0FEA3C3121612502D9000A9E0FE10
:10083000A3E0FFC39000A7E09FFD9000A6E09EC349
:1008400012161F5013C39000A7E09FFF9000A6E070
:100850009E9000A4F0A3EFF0E49000A6F0A3121580
:10086000FB1216739000A8EFF09000A2E0FE1216A3
:100870002BEE75F012A42583F583E0FCA3E0FDA325
:10088000E0FEA3E0FFC00778E8E6FBE4FAF9F8D061
:100890000712037DC004A905AA06AB0778E8E62481
:1008A000FFFFE434FFFEE4FCFDD0001202F2C004BE
:1008B000C005C006C00778E8E6FBE4FAF9F8900046
:1008C000A4E0FCA3E0FDA3E0FEA3E0FF12037DD0C3
:1008D00003D002D001D000EB2FFFEA3EFEE93DFD40
:1008E000E83CFC9000A2E0FA12162BEA75F012A484
:1008F0002583F58312044C9000A3E004F06003020A
:1009000007AE9000A2E004F00207AE22E4F511F574
:10091000127D0575F012EDA42408F582E5F034008F
:10092000F583E0FEA3E0FF75F012EDA42404F58248
:10093000E5F03400F583E0FAA3E0FBC39FEA9E50A4
:100940000CED25E02409F8E4F608F6802575F01290
:10095000EDA42408F582E5F03400F583E0FEA3E081
:10096000FFC3EB9FEA9EFFED25E02409F87600081F
:10097000A6070DBD089DC3E5149518E5139517400E
:1009800024E5149516E5139515401A751900751A86
:1009900028751B00751C3C751D00751E14751F0005
:1009A00075203C8047C3E5189514E517951340243E
:1009B000E5189516E5179515401A751900751A3C36
:1009C000751B00751C14751D00751E28751F01759B
:1009D000202C8018751900751A14751B00751C28B9
:1009E000751D00751E3C751F007520B4AC1BAD1C39
:1009F000AE15AF1612018EAA06AB07AC19AD1AAE32
:100A000013AF1412018EEF2BFBEE3AFAAC1DAD1EA4
:100A1000AE17AF1812018EEF2BFFEE3AFEE514254C
:100A200016FDE5133515FCE5182DFDE5173CFC1208
:100A300001A08E118F127C007D0612018EEF24889A
:100A4000F512EE34FFF511E5202512F512E51F35FC
:100A500011F5117B007A007911121B58AE11AF12FB
:100A600022E478D8F608F678C5F678C5E6FFC3958F
:100A7000274003020AF7E4FD12155E78C6A60608B1
:100A8000A60778C5E6FF7D0112155E78C8EEF60868
:100A9000EFF678C6E6FC08E6FDD39FEC9E400EED2F
:100AA00078C99679CBF7EC189619F78012C379C9F3
:100AB000E778C796FF19E7189678CAF608A6077868
:100AC000C5E6FF121CC2E4FCFDC004A905AA06ABE2
:100AD0000778CAE6FE08E6FF7D64120483D00012A0
:100AE000037D78CAEEF608EFF678D926F618EE36CA
:100AF000F678C506020A6AE478D8F608F67F07FE9B
:100B0000FDFC78D41204331202F2121D4BC004C053
:100B100005C006C00778D8E6FE08E6FFE4FCFD78CD
:100B200010120420121D4BD003D002D001D000EBD4
:100B30002FFFEA3EFEE93DFDE83CFC78D41204407C
:100B4000E527FD7C0078D4E6FE08E6FF1201A078D8
:100B5000DAA60608A607228F1278C51204580000EC
:100B600000001216E7E0FEA3E078C9A60608F6AF7B
:100B7000127E00121CE8EF6003020C3DAF12121649
:100B800073EF6401600E121709FEA3E078CBA6068E
:100B900008F6800EE4FDAF1212155E78CBA60608AB
:100BA000A60778C9E6FE08E6FF08E6FC08E6FDD3DE
:100BB0009FEC9E40091216F8E0240AF0800EC3ED67
:100BC0009FEC9E50071216F8E024F6F01216F8E09B
:100BD000FFD3648094E4400D1216E7E475F001122F
:100BE00001F5020C38C3EF6480941C5050AF121210
:100BF0001673EF64017032E525C313FEE52613FF7B
:100C00001216E7E0FCA3E0C39FFFEC9EFE1217095B
:100C1000FCA3E0FDC39FEC9E75F012E512500F128D
:100C200016ECECF0A3EDF0800F75F012E512121641
:100C3000EC74FFF5F01201F51216F8E4F022E478F6
:100C4000C8F678C8E6FFC395274003020D1575F076
:100C500012EFA42408F582E5F03400F583E0FEA34A
:100C6000E078CBA60608F618E6FE08E6FF2526FD86
:100C7000E5253EFC78C9F608EDF6C39FEC9E5009C9
:100C800078C8E675F012020D0A120D16C006C007EC
:100C9000121BE712155EAC06AD07D007D006C3EDF8
:100CA0009FFFEC9EFE78CDF608EFF6C3EE648094CD
:100CB00080501418E6FE08E6FF7CFF7DFF12018ECF
:100CC00078CDA60608A60778E7E6FFC378CEE69FAC
:100CD0007480F5F0186695F0500D120D16AA06AB4B
:100CE00007121BE7121C72121BE71218F578C9E6EF
:100CF000FC08E6FDD3EF9DEE9C78C8E675F0124047
:100D000009121BDBE04440F08005121BDBE4F078A5
:100D1000C806020C422278C8E6FF7D011218F522AF
:100D2000E4F514F515F519F518F517F516F51DF593
:100D30001CF51BF51AF512E512C395274003020DA9
:100D4000E9E4F520F52174FFF51EF51FE4F51DF526
:100D50001CF51BF51AF513E51325E024E3F8E4F67A
:100D600008F60513E513B402EEE4F513AF121218FA
:100D700070AB07AA06E51325E024E3F8A60208A64F
:100D800003E4FCFDE51D2FF51DE51C3EF51CED35CE
:100D90001BF51BEC351AF51A0513E513C394024035
:100DA000CBAF1DAE1CAD1BAC1AE47B02FAF9F812F6
:100DB000037D8F1D8E1C8D1B8C1AE5121216E9EE19
:100DC000F0A3EFF0E4F513E513C395365016AC1C11
:100DD000AD1DAF121213B5AC1CAD1DAF1212000346
:100DE000051380E30512020D37228D1475F012ED04
:100DF000A42408F582E5F03400F583E0FCA3E0FDCF
:100E000078CCECF608EDF678C8A62D08A62E08A634
:100E10002808A629C3EF9DEE9C5008E478D2F60876
:100E2000F6801178CCE6FC08E6FDC3EF9D78D3F69A
:100E3000EE9C18F6121A9B548078CE760008F6AF16
:100E400014121D5478D0760008A60778CFE618460D
:100E50007021121AAD5005AF14021D65D378C91266
:100E60001AB04036AF141216B0EF602E121A9B441F
:100E700080F02278CFE664011846701ED3121AAEB5
:100E80004005AF14021D5D121AAD500EAF141218BA
:100E900013EF6006121A9B547FF022121C8E78E02A
:100EA000E6FF64036018EF64016013EF64026003FF
:100EB000020F419000B1E064016003020F41E49031
:100EC00000B1F078E0E6FF64026005EF6401704075
:100ED000121993EF702CE52FB4012C0554E554AE94
:100EE000537002055314C39533EE9532401978E0E0
:100EF0007603E4F553F554121DC6121D9B1212051C
:100F00008005E4F553F55478E0E6B40103021B4193
:100F100078E0E664037087121B41120F42EF601BFA
:100F2000121DC3121D95E52478E060057602020EBD
:100F30009E7601E4F553F554020E9E121DC6020E74
:100F40009E22E4F5131219DA8E118F1278E2E6254B
:100F500029FF18E63528FED3E5129FE5119E4003D0
:100F60007F0122E4FFEFC39536504DEF25E024DCEE
:100F7000F8E6FC08E6FD78E1E6FA08E6FBD3ED9B2F
:100F8000EC9A400405138009C3ED9BEC9A500215BE
:100F900013D3E51364809480400A78E206E6187063
:100FA00014068011C3E51364809480500878E2E64B
:100FB00016187001160F80ADE53614FFEFD39400BC
:100FC0004019EF25E024DAF8E6FC08E6FDEF25E01D
:100FD00024DCF8A60408A6051F80E178DCA6110829
:100FE000A6127F002201270901360202251388017B
:100FF0002A0202300019023400FA023200C8012429
:1010000001012F01022D138802280BB8022B2EE0BC
:101010004100B100014200202C60FF14BF09FF1401
:10102000C809FF14CC09FF14D409FF14DC09FF140C
:10103000E309FF14EA09FF14F109FF14F701FF1592
:101040000001FF150701014F00015001025100008E
:101050000239000002400000013E00013D0001385D
:1010600000013F00013700013B00013C0002E100AC
:10107000000253000002DA000000121DB8787FE47D
:10108000F6D8FD7581E80210C402053EE493A3F88A
:10109000E493A34003F68001F208DFF48029E4938F
:1010A000A3F85407240CC8C333C4540F4420C88386
:1010B0004004F456800146F6DFE4800B0102040888
:1010C00010204080900FE5E47E019360BCA3FF54A4
:1010D0003F30E509541FFEE493A360010ECF54C0D6
:1010E00025E060A840B8E493A3FAE493A3F8E4935E
:1010F000A3C8C582C8CAC583CAF0A3C8C582C8CA66
:10110000C583CADFE9DEE780BEE4F511F5127F058D
:10111000FE121CF4EF70127F06FE121CF4EF700931
:101120007F07FE121CF4EF60637D0575F012EDA4DD
:101130002408F582E5F03400F583E0FEA3E0FF75B6
:10114000F012EDA42404F582E5F03400F583E0FA12
:10115000A3E0FBC39FEA9E402275F012EDA4240891
:10116000F582E5F03400F583E0FEA3E0FFC3EB9FDA
:10117000EA9E2512F512E43511F5110DBD08ACD328
:10118000E512941EE51194004002D322C322E4F537
:101190003DFFFE121CE8EF6003433D017F017E002E
:1011A000121CE8EF6003433D027F047E00121CE83E
:1011B000EF6003433D047F087E00121CE8EF6003EC
:1011C000433D087F037E00121CE8EF6003433D109F
:1011D0007F027E00121CE8EF6003433D20E53D6581
:1011E00038F53F853D38E53D6003E4F53785394006
:1011F000853A41121109500A12090C8E398F3AE4CE
:10120000F537053722E4F515F514F513F51278E1F5
:10121000F608F6F511E511C3953650131219DAE503
:101220001125E024DCF8A60608A607051180E6E4EF
:10123000F511E511C395365027E51125E024DCF8BA
:10124000E6FE08E6FFE4FCFDE5152FF515E5143E86
:10125000F514ED3513F513EC3512F512051180D2A6
:10126000AF36AB07E4FAF9F8AF15AE14AD13AC1214
:1012700012037D78E1A60608A60722F075F012EFAA
:10128000A4240CF582E5F03400F5832275F012A455
:101290002404F582E5F03400F58375F0022275F040
:1012A00012A42400F582E5F034002290000B75F0C2
:1012B00012EF120471EE75F012A42583F583E0227B
:1012C00024FFFFE434FFFEEF25E0FFEE33FE0822AB
:1012D00075F012A4240AF582E5F03400F58322EFBC
:1012E000120471ECF0A3EDF022E478C5F678C5E6BF
:1012F000FFC39527505812167378C7A607E418F64F
:1013000078C6E6FFC39403504075F005EFA4240EA1
:10131000F582E5F0341BF583E493FF08E6B5072476
:1013200078C5E6FF08E675F005A42410F582E5F01F
:10133000341BF583740193FA740293F5828A831245
:101340000481800578C60680B778C506809F22E4B0
:10135000F513E513C395275029E4FDAF131218F5D3
:10136000E513121603EEF0A3EFF075F012E513A4E7
:101370002410F582E5F03400F583E4F0A3F00513C2
:1013800080D0E527C39404500578E8768022E527CD
:10139000C39408500578E8764022E527C39410509E
:1013A0000578E8762022E527C3942078E850037674
:1013B0001022760822E478C8F6F9EF12129EAF8266
:1013C00008F608A607E5361478C8F678C8E6FFD30D
:1013D0009400402DEF1212C0E6FA08E6FB8A832F34
:1013E000F582E5833EF583E0FEA3E0FF8B828A83EE
:1013F00078C8E675F002120471EEF0A3EFF01680E3
:10140000CA78C9E6FE08E6F5828E83ECF0A3EDF01B
:10141000AF012285A912E542704EE5AE700675AEA9
:10142000A575AEF17D087F05121C5C7D077F061255
:101430001C5C7D807F04121C5C75A9747DC07F04D8
:10144000121C5C7F407E05EF1F70011EEF4E70F78F
:101450007DC07F04121C5C75B5208512A9E5A930FA
:10146000E7FB7547C075420122C3E53A9541FFE5A8
:10147000399540FED3EF94B4EE94004011E53A95CF
:1014800041CFE5399540CF2498CF34FEFE22C3E505
:1014900041953AFFE5409539FED3EF94B4EE9400C0
:1014A0004011E53A9541CFE5399540CF2468CF34D6
:1014B00001FE22C3E53A9541FFE5399540FE2242FF
:1014C0004153454C494E45005241570050524F43FD
:1014D0004553530053494E4741435400444542410C
:1014E0004354005444454C54410045585056414CD7
:1014F000004E4F495345004E4F4953454553540004
:1015000041435454485200494E41435454485200B8
:101510008F13E4FFEFC395365018E51312129EF5B2
:101520008375F0021212DFE51312128C1212DF0F14
:1015300080E275F012E513A4240BF582E5F0340087
:10154000F583E4F0E52BC4F854F0C8E52CC4540F3F
:1015500048FFE5131212D0EFF0AF130217828F137A
:101560008D14ED3395E0FCD3ED95367480F86C98CE
:10157000401975F012EFA424FEF582E5F034FFF572
:101580008375F002E536120471801BED25E0FFEC57
:1015900033FE75F012E5131212A1F583E5822FF5E3
:1015A00082E5833EF583E0FEA3E0FF228F148E13D5
:1015B0008D128C11E4F518F517F516F515F518F5DB
:1015C00017F516F515AF14AE13AD12AC11AB18AA82
:1015D00017A916A815C312040F501BAF18AE17ADEC
:1015E00016AC15EF2401F518E43EF517E43DF516A9
:1015F000E43CF51580CF22EEF0A3EFF09000A2A31B
:10160000E0FF2275F012A4240EF582E5F03400F517
:101610008322E0FF9000A5E09F9000A4E09E22FCC2
:101620009000A5E09D9000A4E09C22A3E090000E15
:1016300075F012020471E53E13B39280E53EC313C8
:1016400013B392A7E53E1313543F13B39296E53EAE
:10165000131313541F13B39297E53EC4540F13B3DF
:101660009290E53EC413540713B39287853BFC85E3
:101670003CEA228F13E4FF75F005EFA4240FF582F6
:10168000E5F0341BF583E493FDC378DBE69D18E6B3
:101690009400501175F005EFA4240EF582E5F034A6
:1016A0001BF58380070FBF03CE901B18E493FF2226
:1016B00012127CE0FEC4540FFD640F60010D121283
:1016C0007CEE540F12127BE0FEEDC454F0FCEE4CA5
:1016D000F0ED640F6004EDB52A0A12127CE0540F9D
:1016E000F07F01227F0022E51275F012A42408F594
:1016F00082E5F03400F5832275F012E512A4240D82
:10170000F582E5F03400F5832275F012E512A42489
:101710000EF582E5F03400F583E022E4FFEFC39597
:1017200027500C75F012EF121BDBE4F00F80EEE592
:101730002BC4F854F0C868FEE52CC4540F48FFD3FE
:1017400094FFEE940078E7400376FF22A60722E498
:1017500078C5F678C5E6FFC395275025121870782E
:10176000C6EEF6FC08EFF6FD78C5E6FF1213B57875
:10177000C5E6FF08E6FC08E6FD12000378C5068012
:10178000D222EF901DDD93FEEF75F003A424ACF898
:10179000A606EF901DD493FEEF75F003A424AAF8DB
:1017A000A606EF901DE693FEEF75F003A424ABF8B8
:1017B000A60622EF30E0138D3BED6005433E01802D
:1017C00003533EFEBDFF0353DABFEF30E5138D3CFC
:1017D000ED6005433E208003533EDFBDFF0353DB36
:1017E000BF021636AFB5EF30E203754601EF30E3C6
:1017F00003754501EF30E103754401EF30E4047FE8
:10180000FFDFFE75B520E5466006E4F5467F012260
:101810007F002212127CE0FE540FFD640F60010D68
:1018200012127CEE54F012127BE04DF0ED640F606A
:1018300004EDB52A0A12127CE054F0F07F01227FF9
:101840000022E4FFEFC395275025EF121A9D547F25
:10185000F075F012EFA4240CF582E5F03400F58366
:10186000E4F075F012EF121AA054BFF00F80D522E9
:10187000AE07EE75F003A424AAF8E6FF121DC0EE31
:1018800075F003A424ACF8E6FF121D89EE75F00391
:10189000A424ABF8E6FF121D8F1219DA22AFA7E4D9
:1018A000F5A79000ABE5A9F075A914E5A930E7FB11
:1018B0009000ACE5F1F0A3E5F2F0A3E5E2F0E4F589
:1018C000F1F5F275E2C08FA7228F178E168D158C59
:1018D0001475AC14E54754F7F5AD0075AC188517D1
:1018E000AD008516AD008515AD008514AD0075AC55
:1018F000148547AD22EDD3953675F012EF4012A452
:101900002402F582E5F03400F58375F002E53680B7
:101910000412128FED120471E0FEA3E0FF2285A7EE
:1019200011121CDC121D7B121D82121D6D121D7402
:10193000121CA8121D2E1219FC121D42121DBC12DF
:101940001DA18511A72253073FEFF4553EFEE53E4A
:10195000F45F4EF53EEF30E007C374FF953BF53B77
:10196000EF30E507C374FF953CF53C02163643F1B2
:101970004E43F23E43A44E5380B153F1B153A4B150
:1019800043804E43A53E5390C153F2C153A5C1437A
:10199000903E22E4F513F511F512E512C395275098
:1019A00013AF127E00121CF4BF01057513018004F1
:1019B000051280E6AF1322E478C5F678C5E6FFC3CA
:1019C0009402501575F003EFA4241DF582E5F03460
:1019D0001B121CCF78C50680E22275B08853B0DF99
:1019E00043B01075CE0175B540E5B030E5FB85EE2E
:1019F0002285ED23E4F5B0AE22AF232275AC067547
:101A0000AD07E5AC20E7FB75AC0875AD14E5AC207F
:101A1000E7FB75AC0475AD80E5AC20E7FB22AFA712
:101A2000E4F5A79000ABE0F5A9E5A930E7FB90004D
:101A3000ACE0F5F1A3E0F5F2A3E0F5E28FA722E434
:101A4000F5AA53F3C043F340F5FEF5FD75B0885396
:101A5000B0DF43B010E5B030E5FBE4F5B0228E1204
:101A60008F13121AB9AE12AF137C7C7D1A12048345
:101A7000E47BE87A03F9F812037D0218C9E4F51251
:101A800075F003E512A42423F582E5F0341B121C43
:101A9000CF0512E512C3940240E622E51475F01258
:101AA000A4240BF582E5F03400F583E022C378CB63
:101AB00079D3E79619E718962275AC10E4F5AD00D6
:101AC000F5AD00F5AD00F5AD00121C557F04121DFB
:101AD00018EF20E1F722E59154045391FB7595F935
:101AE00075947D7593F975927D439104429143E617
:101AF000802253073F8F3EE4F53BEF30E003753B18
:101B0000FFE4F53CEF30E503753CFF0216360105B6
:101B1000FF1D00020AFF1C800378FF1C80FF0C3EA3
:101B2000FF07A7FF171BFF134F121B6F1200721244
:101B30000D20121DD2121A7D121842121CB5021D60
:101B40003812189D53B6BFE5A930E7FB75B58C4335
:101B5000B6401217E4021A1E12020BC39468E5F095
:101B60009401400A74FE75F09812026E80EA22E435
:101B7000F512E512C39527500CE4FDFCAF121215C7
:101B800010051280ED2275B08875D24E75D33E7562
:101B9000AA8A53AFF843AF02E4F5F32253073FEFAD
:101BA000423E30E003753BFFEF30E503753CFF023A
:101BB0001636EFF4523EEF30E003E4F53BEF30E54C
:101BC00003E4F53C021636E4F511E511C395275000
:101BD00009AF11120B57051180F022A4240BF582D6
:101BE000E5F03400F5832278C8E6FFE4FD22121CFC
:101BF00046121413AF35AE34121A5E7F1C021C64F9
:101C0000121C46121413AF31AE30121A5E7F1C0242
:101C10001C64D287D290D297D296D2A7D280E4F514
:101C2000FCF5EA2212174F1219B71212E9120A61D3
:101C3000121DD3021BC7C0E053917F0552E55270BD
:101C4000020551D0E03275B520E4F548F546F5457A
:101C5000F543F54422E5474402FD7F04EF4410F5C7
:101C6000AC8DAD22EF54FC4247E5474FFD7F0402A7
:101C70001C5CEF12128CED120471EAF0A3EBF0225F
:101C8000AD07ED121603E0FEA3E0FF020DEA121706
:101C9000E4EF60069000B17401F02243F14E43F28C
:101CA0003E53F1B153F2C12275F2C175D5FF75A74C
:101CB0000F759B0122E52478E0B4010376022276B9
:101CC0000122EF1212D0E075F010A4FFAEF022F561
:101CD00083740193FA740293F902047DE4F5A75327
:101CE000D9BFF5D943D840221212AB30E6037F01A9
:101CF000227F00221212AB30E7037F01227F0022F5
:101D00008F13E4FD1218F5AD13020DEAEE30E7076C
:101D1000C3E49FFFE49EFE22EF4490F5AC00000078
:101D2000AFAD22E537C394C84002D322C322E4F505
:101D3000A775E3C075E2022278D4120458000000AF
:101D4000002275A904E5A930E7FB22E47B08FAF933
:101D5000F802037D12127CE0C4540FFF2212127CA1
:101D6000E054F0F02212127CE0540FF02253DF7F97
:101D700075DC082275F1B175D47E2253DF7F75DAE8
:101D8000422253DF7F75DB4222EF5407F5AF22EF8B
:101D90005407F5AA2212196E021A3F121C9B021B4D
:101DA00086121DAD021B29E53D553FFF22121D95F0
:101DB000021DC3AE39AF3A2253D9BF2275B64022B5
:101DC0008FAB22021C00021BEEAF3E22AF3D22AFC2
:101DD0003F22222202010306090A0B0C0D07070706
:0F1DE0000707070707070505050505050505059D
:00000001FF
