:020000040000FA
:10000000020EA38C2C8D2DE478C0F608F6EF75F067
:1000100012A42404F9740035F008760108F608A645
:1000200001E51A1478C1F678C1E6D39400402CE6B5
:10003000FD1210E9860308E6FA08E6F98F828E833E
:10004000120214FFAEF075F002EDA4F58285F08384
:10005000EE8FF01202A378C11680CC78C286030816
:10006000E6FA08E6F9E52C852DF012028478C0E660
:10007000FF22220219DFE709F608DFFA8046E709C6
:10008000F208DFFA803E88828C83E709F0A3DFFA6A
:100090008032E309F608DFFA8078E309F208DFFA34
:1000A000807088828C83E309F0A3DFFA8064898200
:1000B0008A83E0A3F608DFFA805889828A83E0A366
:1000C000F208DFFA804C80D280FA80C680D4806942
:1000D00080F28033801080A680EA809A80A880DA3F
:1000E00080E280CA803389828A83ECFAE493A3C8D1
:1000F000C582C8CCC583CCF0A3C8C582C8CCC58393
:10010000CCDFE9DEE7800D89828A83E493A3F608D9
:10011000DFF9ECFAA9F0EDFB2289828A83ECFAE0A0
:10012000A3C8C582C8CCC583CCF0A3C8C582C8CC3F
:10013000C583CCDFEADEE880DB89828A83E493A38F
:10014000F208DFF980CC88F0EF60010E4E60C388C2
:10015000F0ED2402B4040050B9F582EB2402B4049B
:100160000050AF23234582239000C673EF8DF0A487
:10017000A8F0CF8CF0A428CE8DF0A42EFE22BC00D7
:100180000BBE0029EF8DF084FFADF022E4CCF875B2
:10019000F008EF2FFFEE33FEEC33FCEE9DEC9840C1
:1001A00005FCEE9DFE0FD5F0E9E4CEFD22EDF8F55D
:1001B000F0EE8420D21CFEADF075F008EF2FFFEDBD
:1001C00033FD4007985006D5F0F222C398FD0FD5B5
:1001D000F0EA22C5F0F8A3E028F0C5F0F8E58215B2
:1001E0008270021583E038F022BB010A89828A837B
:1001F000E0F5F0A3E022500687F009E71922BBFEE4
:1002000007E3F5F009E3192289828A83E493F5F084
:1002100074019322BB0110E58229F582E5833AF54A
:1002200083E0F5F0A3E0225009E92582F886F00882
:10023000E622BBFE0AE92582F8E2F5F008E222E5B3
:10024000832AF583E993F5F0A3E99322BB0107899B
:10025000828A830201D3500B09C5F027F7C5F01934
:1002600037F722BBFE0D09F8E325F0F3C5F019E3DB
:1002700038F322F889828A8374019325F0C5F0F857
:10028000E4933822BB010A89828A83F0E5F0A3F067
:10029000225006F709A7F01922BBFE06F3E5F00984
:1002A000F31922F8BB0111E58229F582E5833AF5BD
:1002B00083E8F0E5F0A3F0225009E92582C8F608AA
:1002C000A6F022BBFE09E92582C8F2E5F008F22279
:1002D000E88FF0A4CC8BF0A42CFCE98EF0A42CFCCD
:1002E0008AF0EDA42CFCEA8EF0A4CDA8F08BF0A44B
:1002F0002DCC3825F0FDE98FF0A42CCD35F0FCEBAA
:100300008EF0A4FEA9F0EB8FF0A4CFC5F02ECD396E
:10031000FEE43CFCEAA42DCE35F0FDE43CFC227565
:10032000F008758200EF2FFFEE33FECD33CDCC33D6
:10033000CCC58233C5829BED9AEC99E58298400C3E
:10034000F582EE9BFEED9AFDEC99FC0FD5F0D6E41C
:10035000CEFBE4CDFAE4CCF9A88222B800C1B90002
:1003600059BA002DEC8BF084CFCECDFCE5F0CBF963
:100370007818EF2FFFEE33FEED33FDEC33FCEB335B
:10038000FB10D703994004EB99FB0FD8E5E4F9FA89
:10039000227818EF2FFFEE33FEED33FDEC33FCC96E
:1003A00033C910D7059BE99A4007EC9BFCE99AF901
:1003B0000FD8E0E4C9FAE4CCFB2275F010EF2FFF70
:1003C000EE33FEED33FDCC33CCC833C810D7079BDA
:1003D000EC9AE899400AED9BFDEC9AFCE899F80F3D
:1003E000D5F0DAE4CDFBE4CCFAE4C8F922EB9FF5D2
:1003F000F0EA9E42F0E99D42F0E89C45F022E86078
:100400000FEFC333FFEE33FEED33FDEC33FCD8F1D9
:1004100022E6FB08E6F908E6FA08E6CBF822ECF655
:1004200008EDF608EEF608EFF622ECF0A3EDF0A3E7
:10043000EEF0A3EFF022D083D082E493F6087401AB
:1004400093F608740293F608740393F6740473A485
:100450002582F582E5F03583F583228A838982E45B
:1004600073EC8EF0A4CCC5F0CCCDF8EFA4CEC5F0E3
:100470002DFDE43CFCE8A42EC8C5F03DFDE43CFCA9
:10048000EFA4FFE5F028FEE43DFDE43CFC22BB01C7
:100490000689828A83E0225002E722BBFE02E32221
:1004A00089828A83E49322BB010CE58229F582E5E7
:1004B000833AF583E0225006E92582F8E622BBFE66
:1004C00006E92582F8E222E58229F582E5833AF5FC
:1004D00083E49322BB010689828A83F0225002F7CB
:1004E00022BBFE01F322FAE6FB0808E6F925F0F646
:1004F00018E6CA3AF622D083D082F8E493701274D8
:100500000193700DA3A393F8740193F5828883E49B
:10051000737402936860EFA3A3A380DFE49000A24A
:10052000F0A3F09000A2E0FCA3E0FDC3950B748063
:10053000F8EC6480984003020680AF05E4FD1213D6
:10054000849000A41213D27D011213849000A6128D
:1005500013D2121A6B9000A9EEF0A3EFF09000A650
:10056000E0FEA3D31213ED402B9000A9E0FEA3E020
:10057000FF9000A7E02FFD9000A6E03ED31213FAF3
:1005800040129000A7E02FFF9000A6E03E9000A44C
:10059000F0A3EFF09000A6E0FEA3C31213ED502DE0
:1005A0009000A9E0FEA3E0FFC39000A7E09FFD90AC
:1005B00000A6E09EC31213FA5013C39000A7E09F59
:1005C000FF9000A6E09E9000A4F0A3EFF0E490005E
:1005D000A6F0A31213D612144E9000A8EFF09000CC
:1005E000A2E0FE121406EE75F012A42583F583E056
:1005F000FCA3E0FDA3E0FEA3E0FFC00778E0E6FB7C
:10060000E4FAF9F8D00712035BC004A905AA06AB07
:100610000778E0E624FFFFE434FFFEE4FCFDD000B1
:100620001202D0C004C005C006C00778E0E6FBE4B3
:10063000FAF9F89000A4E0FCA3E0FDA3E0FEA3E03B
:10064000FF12035BD003D002D001D000EB2FFFEAF2
:100650003EFEE93DFDE83CFC9000A2E0FA121406E3
:10066000EA75F012A42583F58312042A9000A3E012
:1006700004F060030205239000A2E004F0020523C9
:1006800022E4F51BF51C7D0575F012EDA42408F598
:1006900082E5F03400F583E0FEA3E0FF75F012ED93
:1006A000A42404F582E5F03400F583E0FAA3E0FB2E
:1006B000C39FEA9E500CED25E02413F8E4F608F6FB
:1006C000802575F012EDA42408F582E5F03400F5DC
:1006D00083E0FEA3E0FFC3EB9FEA9EFFED25E0244D
:1006E00013F8760008A6070DBD089DC3E51E9522E8
:1006F000E51D95214024E51E9520E51D951F401A16
:1007000075230075242875250075263C752700750E
:100710002814752900752A3C8047C3E522951EE5FB
:1007200021951D4024E5229520E521951F401A754D
:10073000230075243C75250075261475270075283F
:1007400028752901752A2C801875230075241475C5
:10075000250075262875270075283C752900752AFF
:10076000B4AC25AD26AE1FAF2012016CAA06AB07B4
:10077000AC23AD24AE1DAF1E12016CEF2BFBEE3A85
:10078000FAAC27AD28AE21AF2212016CEF2BFFEEA1
:100790003AFEE51E2520FDE51D351FFCE5222DFD59
:1007A000E5213CFC12017E8E1B8F1C7C007D061215
:1007B000016CEF2488F51CEE34FFF51BE52A251C9F
:1007C000F51CE529351BF51B7B007A00791B1219F6
:1007D00009AE1BAF1C22E478D0F608F678BDF67897
:1007E000BDE6FFC3950B400302086CE4FD121384C1
:1007F00078BEA60608A60778BDE6FF7D0112138421
:1008000078C0EEF608EFF678BEE6FC08E6FDD39F6A
:10081000EC9E400EED78C19679C3F7EC189619F767
:100820008012C379C1E778BF96FF19E7189678C29E
:10083000F608A60778BDE6FF121A6BE4FCFDC004BB
:10084000A905AA06AB0778C2E6FE08E6FF7D64129A
:100850000461D00012035B78C2EEF608EFF678D19F
:1008600026F618EE36F678BD060207DFE478D0F6F5
:1008700008F67F07FEFDFC78CC1204111202D0129C
:100880001AF1C004C005C006C00778D0E6FE08E62D
:10089000FFE4FCFD78101203FE121AF1D003D0021F
:1008A000D001D000EB2FFFEA3EFEE93DFDE83CFC25
:1008B00078CC12041EE50BFD7C0078CCE6FE08E641
:1008C000FF12017E78D2A60608A607228F1C78BDEB
:1008D000120436000000001214C2E0FEA3E078C14A
:1008E000A60608F6AF1C7E00121A91EF60030209FB
:1008F000B2AF1C12144EEF6401600E1214E4FEA39A
:10090000E078C3A60608F6800EE4FDAF1C1213843F
:1009100078C3A60608A60778C1E6FE08E6FF08E643
:10092000FC08E6FDD39FEC9E40091214D3E0240A94
:10093000F0800EC3ED9FEC9E50071214D3E024F616
:10094000F01214D3E0FFD3648094E4400D1214C27B
:10095000E475F0011201D30209ADC3EF6480941C69
:100960005050AF1C12144EEF64017032E509C313EE
:10097000FEE50A13FF1214C2E0FCA3E0C39FFFECE4
:100980009EFE1214E4FCA3E0FDC39FEC9E75F012E2
:10099000E51C500F1214C7ECF0A3EDF0800F75F0BA
:1009A00012E51C1214C774FFF5F01201D31214D310
:1009B000E4F022E478C0F678C0E6FFC3950B40036C
:1009C000020A8A75F012EFA42408F582E5F03400DB
:1009D000F583E0FEA3E078C3A60608F618E6FE0855
:1009E000E6FF250AFDE5093EFC78C1F608EDF6C3F1
:1009F0009FEC9E500978C0E675F012020A7F120A39
:100A00008BC006C00712196D121384AC06AD07D057
:100A100007D006C3ED9FFFEC9EFE78C5F608EFF603
:100A2000C3EE64809480501418E6FE08E6FF7CFF55
:100A30007DFF12016C78C5A60608A60778DFE6FFE1
:100A4000C378C6E69F7480F5F0186695F0500D12D5
:100A50000A8BAA06AB0712196D121A1B12196D1216
:100A600016CF78C1E6FC08E6FDD3EF9DEE9C78C07A
:100A7000E675F0124009121961E04440F080051259
:100A80001961E4F078C0060209B72278C0E6FF7D5C
:100A9000011216CF22E4F51EF51FF523F522F521EC
:100AA000F520F527F526F525F524F51CE51CC3955D
:100AB0000B4003020B5EE4F52AF52B74FFF528F5D5
:100AC00029E4F527F526F525F524F51DE51D25E096
:100AD00024DBF8E4F608F6051DE51DB402EEE4F5A6
:100AE0001DAF1C12164AAB07AA06E51D25E024DB44
:100AF000F8A60208A603E4FCFDE5272FF527E52666
:100B00003EF526ED3525F525EC3524F524051DE5C6
:100B10001DC3940240CBAF27AE26AD25AC24E47BA9
:100B200002FAF9F812035B8F278E268D258C24E5B7
:100B30001C1214C4EEF0A3EFF0E4F51DE51DC395FF
:100B40001A5016AC26AD27AF1C1211DEAC26AD270D
:100B5000AF1C120003051D80E3051C020AAC221223
:100B600016F812188843A8A07F0C121AE8121292E5
:100B70007F1E121AE81212927F3F121AE87DFF7F41
:100B8000211218A4121292806A120CC11219BC12FE
:100B90000FB7121AC050051219AA80ED121B60126D
:100BA000158E121B54EF541EFF121998121B54EF8E
:100BB00030E0237F1E1219987F011219CEC374FFF3
:100BC0009FFD7F011218A47F201219CEC374FF9FCE
:100BD000FD7F201218A4121B54EF30E5AC121B76D7
:100BE000EF70107F011219CEEF70087F201219CE1E
:100BF000EF600E7F3F121B2FE4FD7F211218A480AF
:100C0000887F3F121AE87DFF7F211218A4020B890A
:100C10008D1E75F012EDA42408F582E5F03400F580
:100C200083E0FCA3E0FD78C4ECF608EDF678C0A6FE
:100C30001108A61208A60C08A60DC3EF9DEE9C5045
:100C400008E478CAF608F6801178C4E6FC08E6FDE8
:100C5000C3EF9D78CBF6EE9C18F612184D548078B1
:100C6000C6760008F6AF1E121AFA78C8760008A6F3
:100C70000778C7E61846702112185F5005AF1E02AC
:100C80001B0BD378C11218624036AF1E12148BEFC3
:100C9000602E12184D4480F02278C7E66401184691
:100CA000701ED31218604005AF1E021B0312185F9E
:100CB000500EAF1E1215EDEF600612184D547FF066
:100CC00022121A3778D8E6FF64036018EF640160D7
:100CD00013EF64026003020D679000B1E0640160ED
:100CE00003020D67E49000B1F078D8E6FF6402607B
:100CF00005EF64017040121745EF702CE513B40145
:100D00002C054BE54BAE4A7002054A14C39517EE0D
:100D10009516401978D87603E4F54AF54B121B7303
:100D2000121B4812102E8005E4F54AF54B78D8E6E0
:100D3000B401030218F278D8E6640370871218F23F
:100D4000120D68EF601B121B70121B42E50878D869
:100D500060057602020CC47601E4F54AF54B020CFC
:100D6000C4121B73020CC422E4F51D12178C8E1BD7
:100D70008F1C78DAE6250DFF18E6350CFED3E51C4E
:100D80009FE51B9E40037F0122E4FFEFC3951A50AD
:100D90004DEF25E024D4F8E6FC08E6FD78D9E6FA24
:100DA00008E6FBD3ED9BEC9A4004051D8009C3EDDA
:100DB0009BEC9A5002151DD3E51D64809480400A77
:100DC00078DA06E6187014068011C3E51D64809475
:100DD00080500878DAE616187001160F80ADE51A13
:100DE00014FFEFD394004019EF25E024D2F8E6FC7D
:100DF00008E6FDEF25E024D4F8A60408A6051F8028
:100E0000E178D4A61B08A61C7F0022010B09011A59
:100E10000202091388010E0202140019021800FAD6
:100E2000021600C801080101130102111388020C07
:100E30000BB8020F2EE04100B100013900202C5800
:100E4000FF12E509FF12EE09FF12F209FF12FA097B
:100E5000FF130209FF130909FF131009FF131709F4
:100E6000FF131D01FF132601FF132D010146000191
:100E70004701014C00024800000135000132000129
:100E80003300013400012F00013600012E00023032
:100E900000000237000002D90000024A000002D21E
:100EA000000000121B65787FE4F6D8FD7581E00232
:100EB0000EED020B5FE493A3F8E493A34003F680E6
:100EC00001F208DFF48029E493A3F85407240CC846
:100ED000C333C4540F4420C8834004F456800146F1
:100EE000F6DFE4800B0102040810204080900E0B16
:100EF000E47E019360BCA3FF543F30E509541FFE1C
:100F0000E493A360010ECF54C025E060A840B8E48C
:100F100093A3FAE493A3F8E493A3C8C582C8CAC50F
:100F200083CAF0A3C8C582C8CAC583CADFE9DEE7A1
:100F300080BEE4F51BF51C7F05FE121A9DEF7012B2
:100F40007F06FE121A9DEF70097F07FE121A9DEFB1
:100F500060637D0575F012EDA42408F582E5F03498
:100F600000F583E0FEA3E0FF75F012EDA42404F584
:100F700082E5F03400F583E0FAA3E0FBC39FEA9E2C
:100F8000402275F012EDA42408F582E5F03400F556
:100F900083E0FEA3E0FFC3EB9FEA9E251CF51CE463
:100FA000351BF51B0DBD08ACD3E51C941EE51B9449
:100FB000004002D322C322E4F534FFFE121A91EF5F
:100FC00060034334017F017E00121A91EF600343F6
:100FD00034027F047E00121A91EF60034334047FD1
:100FE000087E00121A91EF60034334087F037E00ED
:100FF000121A91EF60034334107F027E00121A919F
:10100000EF6003433420E534652FF53685342FE552
:10101000346003E4F52E120F3250108530378531DD
:10102000381206818E308F31E4F52E052E22E4F53C
:101030001FF51EF51DF51C78D9F608F6F51BE51B06
:10104000C3951A501312178CE51B25E024D4F8A67B
:101050000608A607051B80E6E4F51BE51BC3951AE9
:101060005027E51B25E024D4F8E6FE08E6FFE4FC63
:10107000FDE51F2FF51FE51E3EF51EED351DF51D87
:10108000EC351CF51C051B80D2AF1AAB07E4FAF94E
:10109000F8AF1FAE1EAD1DAC1C12035B78D9A606BF
:1010A00008A60722F075F012EFA4240CF582E5F0F3
:1010B0003400F5832275F012A42404F582E5F0349F
:1010C00000F58375F0022275F012A42400F582E584
:1010D000F034002290000B75F012EF12044FEE7501
:1010E000F012A42583F583E02224FFFFE434FFFE01
:1010F000EF25E0FFEE33FE082275F012A4240AF576
:1011000082E5F03400F58322EF12044FECF0A3EDFA
:10111000F022E478BDF678BDE6FFC3950B50581277
:10112000144E78BFA607E418F678BEE6FFC3940312
:10113000504075F005EFA424BFF582E5F03418F5B2
:1011400083E493FF08E6B5072478BDE6FF08E6755B
:10115000F005A424C1F582E5F03418F583740193F9
:10116000FA740293F5828A8312045F800578BE06C2
:1011700080B778BD06809F22E4F51DE51DC3950B61
:101180005029E4FDAF1D1216CFE51D1213DEEEF05F
:10119000A3EFF075F012E51DA42410F582E5F034FC
:1011A00000F583E4F0A3F0051D80D0E50BC39404A3
:1011B000500578E0768022E50BC39408500578E06E
:1011C000764022E50BC39410500578E0762022E5A6
:1011D0000BC3942078E05003761022760822E4783E
:1011E000C0F6F9EF1210C7AF8208F608A607E51A95
:1011F0001478C0F678C0E6FFD39400402DEF1210AB
:10120000E9E6FA08E6FB8A832FF582E5833EF5835B
:10121000E0FEA3E0FF8B828A8378C0E675F00212BD
:10122000044FEEF0A3EFF01680CA78C1E6FE08E6A0
:10123000F5828E83ECF0A3EDF0AF012285A91CE5C9
:1012400039704EE5AE700675AEA575AEF17D087FBE
:1012500005121A057D077F06121A057D807F04128C
:101260001A0575A9747DC07F04121A057F407E059A
:10127000EF1F70011EEF4E70F77DC07F04121A053C
:1012800075B520851CA9E5A930E7FB753EC0753909
:1012900001227F707E117D017C008F1E8E1D8D1CB2
:1012A0008C1BE4F522F521F520F51FF522F521F53B
:1012B00020F51FAF1EAE1DAD1CAC1BAB22AA21A991
:1012C00020A81FC31203ED501BAF22AE21AD20ACEE
:1012D0001FEF2401F522E43EF521E43DF520E43C36
:1012E000F51F80CF22424153454C494E45005241A3
:1012F000570050524F434553530053494E474143C3
:101300005400444542414354005444454C54410028
:1013100045585056414C004E4F495345004E4F4999
:1013200053454553540041435454485200494E419B
:101330004354544852008F1DE4FFEFC3951A5018D0
:10134000E51D1210C7F58375F002121108E51D1294
:1013500010B51211080F80E275F012E51DA4240BE0
:10136000F582E5F03400F583E4F0E50FC4F854F0BD
:10137000C8E510C4540F48FFE51D1210F9EFF0AF97
:101380001D02155D8F1D8D1EED3395E0FCD3ED958F
:101390001A7480F86C98401975F012EFA424FEF5C9
:1013A00082E5F034FFF58375F002E51A12044F80F0
:1013B0001BED25E0FFEC33FE75F012E51D1210CA9F
:1013C000F583E5822FF582E5833EF583E0FEA3E019
:1013D000FF22EEF0A3EFF09000A2A3E0FF2275F051
:1013E00012A4240EF582E5F03400F58322E0FF908C
:1013F00000A5E09F9000A4E09E22FC9000A5E09D47
:101400009000A4E09C22A3E090000E75F01202046C
:101410004FE53513B39280E535C31313B392A7E5B7
:10142000351313543F13B39296E535131313541F1A
:1014300013B39297E535C4540F13B39290E535C4B6
:1014400013540713B392878532FC8533EA228F1D2C
:10145000E4FF75F005EFA424C0F582E5F03418F53B
:1014600083E493FDC378D3E69D18E694005011758C
:10147000F005EFA424BFF582E5F03418F58380076A
:101480000FBF03CE9018C9E493FF221210A5E0FE0F
:10149000C4540FFD640F60010D1210A5EE540F121D
:1014A00010A4E0FEEDC454F0FCEE4CF0ED640F60CF
:1014B00004EDB50E0A1210A5E0540FF07F01227F53
:1014C0000022E51C75F012A42408F582E5F0340032
:1014D000F5832275F012E51CA4240DF582E5F034A5
:1014E00000F5832275F012E51CA4240EF582E5F0C8
:1014F0003400F583E022E4FFEFC3950B500C75F048
:1015000012EF121961E4F00F80EEE50FC4F854F009
:10151000C868FEE510C4540F48FFD394FFEE940052
:1015200078DF400376FF22A60722E478BDF678BD77
:10153000E6FFC3950B502512164A78BEEEF6FC085E
:10154000EFF6FD78BDE6FF1211DE78BDE6FF08E696
:10155000FC08E6FD12000378BD0680D222EF901B46
:101560008493FEEF75F003A424A4F8A606EF901B65
:101570007B93FEEF75F003A424A2F8A606EF901B60
:101580008D93FEEF75F003A424A3F8A60622EF784E
:1015900005C333CE33CED8F9FF7C007D2D12017EFA
:1015A0008F1BE51B654C6015AD1B7F011218A4C392
:1015B00074FF951BFD7F201218A4851B4C22AFB52C
:1015C000EF30E203753D01EF30E303753C01EF308E
:1015D000E103753B01EF30E4047FFFDFFE75B520CA
:1015E000E53D6006E4F53D7F01227F00221210A553
:1015F000E0FE540FFD640F60010D1210A5EE54F0D3
:101600001210A4E04DF0ED640F6004EDB50E0A1267
:1016100010A5E054F0F07F01227F0022E4FFEFC329
:10162000950B5025EF12184F547FF075F012EFA470
:10163000240CF582E5F03400F583E4F075F012EF48
:1016400012185254BFF00F80D522AE07EE75F0038A
:10165000A424A2F8E6FF121B6DEE75F003A424A4E7
:10166000F8E6FF121B36EE75F003A424A3F8E6FF9C
:10167000121B3C12178C22AFA7E4F5A79000ABE534
:10168000A9F075A914E5A930E7FB9000ACE5F1F0ED
:10169000A3E5F2F0A3E5E2F0E4F5F1F5F275E2C0BE
:1016A0008FA7228F218E208D1F8C1E75AC14E53ED6
:1016B00054F7F5AD0075AC188521AD008520AD005F
:1016C000851FAD00851EAD0075AC14853EAD22EDC5
:1016D000D3951A75F012EF4012A42402F582E5F0BA
:1016E0003400F58375F002E51A80041210B8ED128B
:1016F000044FE0FEA3E0FF2285A71B121A85121BF0
:1017000021121B28121B13121B1A121A51121ACB68
:101710001217AE121ADF121B69121B4E851BA7226D
:1017200043F14E43F23E43A44E5380B153F1B153C3
:10173000A4B143804E43A53E5390C153F2C153A57B
:10174000C143903E22E4F51DF51BF51CE51CC39535
:101750000B5013AF1C7E00121A9DBF0105751D01B1
:101760008004051C80E6AF1D22E478BDF678BDE656
:10177000FFC39402501575F003EFA424CEF582E563
:10178000F03418121A7878BD0680E22275B08853BA
:10179000B0DF43B01075CE0175B540E5B030E5FB64
:1017A00085EE2C85ED2DE4F5B0AE2CAF2D2275AC79
:1017B0000675AD07E5AC20E7FB75AC0875AD14E523
:1017C000AC20E7FB75AC0475AD80E5AC20E7FB22EF
:1017D000AFA7E4F5A79000ABE0F5A9E5A930E7FBDA
:1017E0009000ACE0F5F1A3E0F5F2A3E0F5E28FA7FD
:1017F00022E4F5AA53F3C043F340F5FEF5FD75B0BE
:101800008853B0DF43B010E5B030E5FBE4F5B0221B
:101810008E1C8F1D12186BAE1CAF1D7C7C7D1A12A6
:101820000461E47BE87A03F9F812035B0216A3E48F
:10183000F51C75F003E51CA424D4F582E5F03418FA
:10184000121A78051CE51CC3940240E622E51E75B9
:10185000F012A4240BF582E5F03400F583E022C3F6
:1018600078C379CBE79619E718962275AC10E4F5A2
:10187000AD00F5AD00F5AD00F5AD001219FE7F0429
:10188000121AB5EF20E1F722E59154045391FB754C
:1018900095F975947D7593F975927D439104429104
:1018A00043E68022EF30E0088D32BDFF0353DABFFC
:1018B000EF30E5088D33BDFF0353DBBF0214110188
:1018C00005FF1AA9020AFF1A290378FF1A29FF093E
:1018D000B3FF051CFF14F6FF1178121920120072D5
:1018E000120A95121B7912182F12161C121A5E0278
:1018F0001AD512167753B6BFE5A930E7FB75B58C3C
:1019000043B6401215BE0217D01201E9C39468E530
:10191000F09401400A74FE75F09812024C80EA229D
:10192000E4F51CE51CC3950B500CE4FDFCAF1C1248
:101930001336051C80ED2275B08875D24E75D33EE6
:1019400075AA8A53AFF843AF02E4F5F322E4F51B1E
:10195000E51BC3950B5009AF1B1208CC051B80F08B
:1019600022A4240BF582E5F03400F5832278C0E64A
:10197000FFE4FD221219EF12123CAF19AE18121833
:10198000107F1C021A0D1219EF12123CAF15AE1483
:101990001218107F1C021A0D53073FEFF45535FE45
:1019A000E535F45F4EF535021411D287D290D29707
:1019B000D296D2A7D280E4F5EAF5FC2212152A12BB
:1019C00017691211121207D6121B7A02194DE4FE82
:1019D000EF30E002AE32EF30E502AE33AF0622C0A8
:1019E000E053917F0549E54970020548D0E0327522
:1019F000B520E4F53FF53DF53CF53AF53B22E53EF3
:101A00004402FD7F04EF4410F5AC8DAD22EF54FC91
:101A1000423EE53E4FFD7F04021A05EF1210B5ED80
:101A200012044FEAF0A3EBF022AD07ED1213DEE053
:101A3000FEA3E0FF020C101215BEEF60069000B18D
:101A40007401F02243F14E43F23E53F1B153F2C11F
:101A50002275F2C175D5FF75A70F759B0122E508A8
:101A600078D8B40103760222760122EF1210F9E051
:101A700075F010A4FFAEF022F583740193FA74029E
:101A800093F902045BE4F5A753D9BFF5D943D840D5
:101A9000221210D430E6037F01227F00221210D4DC
:101AA00030E7037F01227F00228F1DE4FD1216CF55
:101AB000AD1D020C10EF4490F5AC000000AFAD225C
:101AC000E52EC394C84002D322C322E4F5A775E3F0
:101AD000C075E2022278CC120436000000002275A4
:101AE000A904E5A930E7FB2253073FEF4235021472
:101AF00011E47B08FAF9F802035B1210A5E0C45464
:101B00000FFF221210A5E054F0F0221210A5E054AD
:101B10000FF02253DF7F75DC082275F1B175D47E9A
:101B20002253DF7F75DA422253DF7F75DB4222EFDB
:101B3000F45235021411EF5407F5AF22EF5407F5B4
:101B4000AA221217200217F1121A44021937121B87
:101B50005A0218DAE5345536FF22121B42021B7076
:101B6000AE30AF312253D9BF2275B640228FAB229F
:101B7000021986021974AF352222220201030609D6
:101B80000A0B0C0D070707070707070707050505D9
:061B900005050505050531
:00000001FF
