:020000040000FA
:10000000020DF28C2C8D2DE478C0F608F6EF75F019
:1000100012A42404F9740035F008760108F608A645
:1000200001E51A1478C1F678C1E6D39400402CE6B5
:10003000FD1210C5860308E6FA08E6F98F828E8362
:10004000120214FFAEF075F002EDA4F58285F08384
:10005000EE8FF01202A378C11680CC78C286030816
:10006000E6FA08E6F9E52C852DF012028478C0E660
:10007000FF2222021A2EE709F608DFFA8046E70976
:10008000F208DFFA803E88828C83E709F0A3DFFA6A
:100090008032E309F608DFFA8078E309F208DFFA34
:1000A000807088828C83E309F0A3DFFA8064898200
:1000B0008A83E0A3F608DFFA805889828A83E0A366
:1000C000F208DFFA804C80D280FA80C680D4806942
:1000D00080F28033801080A680EA809A80A880DA3F
:1000E00080E280CA803389828A83ECFAE493A3C8D1
:1000F000C582C8CCC583CCF0A3C8C582C8CCC58393
:10010000CCDFE9DEE7800D89828A83E493A3F608D9
:10011000DFF9ECFAA9F0EDFB2289828A83ECFAE0A0
:10012000A3C8C582C8CCC583CCF0A3C8C582C8CC3F
:10013000C583CCDFEADEE880DB89828A83E493A38F
:10014000F208DFF980CC88F0EF60010E4E60C388C2
:10015000F0ED2402B4040050B9F582EB2402B4049B
:100160000050AF23234582239000C673EF8DF0A487
:10017000A8F0CF8CF0A428CE8DF0A42EFE22BC00D7
:100180000BBE0029EF8DF084FFADF022E4CCF875B2
:10019000F008EF2FFFEE33FEEC33FCEE9DEC9840C1
:1001A00005FCEE9DFE0FD5F0E9E4CEFD22EDF8F55D
:1001B000F0EE8420D21CFEADF075F008EF2FFFEDBD
:1001C00033FD4007985006D5F0F222C398FD0FD5B5
:1001D000F0EA22C5F0F8A3E028F0C5F0F8E58215B2
:1001E0008270021583E038F022BB010A89828A837B
:1001F000E0F5F0A3E022500687F009E71922BBFEE4
:1002000007E3F5F009E3192289828A83E493F5F084
:1002100074019322BB0110E58229F582E5833AF54A
:1002200083E0F5F0A3E0225009E92582F886F00882
:10023000E622BBFE0AE92582F8E2F5F008E222E5B3
:10024000832AF583E993F5F0A3E99322BB0107899B
:10025000828A830201D3500B09C5F027F7C5F01934
:1002600037F722BBFE0D09F8E325F0F3C5F019E3DB
:1002700038F322F889828A8374019325F0C5F0F857
:10028000E4933822BB010A89828A83F0E5F0A3F067
:10029000225006F709A7F01922BBFE06F3E5F00984
:1002A000F31922F8BB0111E58229F582E5833AF5BD
:1002B00083E8F0E5F0A3F0225009E92582C8F608AA
:1002C000A6F022BBFE09E92582C8F2E5F008F22279
:1002D000E88FF0A4CC8BF0A42CFCE98EF0A42CFCCD
:1002E0008AF0EDA42CFCEA8EF0A4CDA8F08BF0A44B
:1002F0002DCC3825F0FDE98FF0A42CCD35F0FCEBAA
:100300008EF0A4FEA9F0EB8FF0A4CFC5F02ECD396E
:10031000FEE43CFCEAA42DCE35F0FDE43CFC227565
:10032000F008758200EF2FFFEE33FECD33CDCC33D6
:10033000CCC58233C5829BED9AEC99E58298400C3E
:10034000F582EE9BFEED9AFDEC99FC0FD5F0D6E41C
:10035000CEFBE4CDFAE4CCF9A88222B800C1B90002
:1003600059BA002DEC8BF084CFCECDFCE5F0CBF963
:100370007818EF2FFFEE33FEED33FDEC33FCEB335B
:10038000FB10D703994004EB99FB0FD8E5E4F9FA89
:10039000227818EF2FFFEE33FEED33FDEC33FCC96E
:1003A00033C910D7059BE99A4007EC9BFCE99AF901
:1003B0000FD8E0E4C9FAE4CCFB2275F010EF2FFF70
:1003C000EE33FEED33FDCC33CCC833C810D7079BDA
:1003D000EC9AE899400AED9BFDEC9AFCE899F80F3D
:1003E000D5F0DAE4CDFBE4CCFAE4C8F922EB9FF5D2
:1003F000F0EA9E42F0E99D42F0E89C45F022E86078
:100400000FEFC333FFEE33FEED33FDEC33FCD8F1D9
:1004100022E6FB08E6F908E6FA08E6CBF822ECF655
:1004200008EDF608EEF608EFF622ECF0A3EDF0A3E7
:10043000EEF0A3EFF022D083D082E493F6087401AB
:1004400093F608740293F608740393F6740473A485
:100450002582F582E5F03583F583228A838982E45B
:1004600073EC8EF0A4CCC5F0CCCDF8EFA4CEC5F0E3
:100470002DFDE43CFCE8A42EC8C5F03DFDE43CFCA9
:10048000EFA4FFE5F028FEE43DFDE43CFC22BB01C7
:100490000689828A83E0225002E722BBFE02E32221
:1004A00089828A83E49322BB010CE58229F582E5E7
:1004B000833AF583E0225006E92582F8E622BBFE66
:1004C00006E92582F8E222E58229F582E5833AF5FC
:1004D00083E49322BB010689828A83F0225002F7CB
:1004E00022BBFE01F322FAE6FB0808E6F925F0F646
:1004F00018E6CA3AF622D083D082F8E493701274D8
:100500000193700DA3A393F8740193F5828883E49B
:10051000737402936860EFA3A3A380DFE49000A24A
:10052000F0A3F09000A2E0FCA3E0FDC3950B748063
:10053000F8EC6480984003020680AF05E4FD1213D6
:10054000609000A41213AE7D011213609000A612F9
:1005500013AE121ABA9000A9EEF0A3EFF09000A625
:10056000E0FEA3D31213C9402B9000A9E0FEA3E044
:10057000FF9000A7E02FFD9000A6E03ED31213D617
:1005800040129000A7E02FFF9000A6E03E9000A44C
:10059000F0A3EFF09000A6E0FEA3C31213C9502D04
:1005A0009000A9E0FEA3E0FFC39000A7E09FFD90AC
:1005B00000A6E09EC31213D65013C39000A7E09F7D
:1005C000FF9000A6E09E9000A4F0A3EFF0E490005E
:1005D000A6F0A31213B212142A9000A8EFF0900014
:1005E000A2E0FE1213E2EE75F012A42583F583E07B
:1005F000FCA3E0FDA3E0FEA3E0FFC00778E0E6FB7C
:10060000E4FAF9F8D00712035BC004A905AA06AB07
:100610000778E0E624FFFFE434FFFEE4FCFDD000B1
:100620001202D0C004C005C006C00778E0E6FBE4B3
:10063000FAF9F89000A4E0FCA3E0FDA3E0FEA3E03B
:10064000FF12035BD003D002D001D000EB2FFFEAF2
:100650003EFEE93DFDE83CFC9000A2E0FA1213E208
:10066000EA75F012A42583F58312042A9000A3E012
:1006700004F060030205239000A2E004F0020523C9
:1006800022E4F51BF51C7D0575F012EDA42408F598
:1006900082E5F03400F583E0FEA3E0FF75F012ED93
:1006A000A42404F582E5F03400F583E0FAA3E0FB2E
:1006B000C39FEA9E500CED25E02413F8E4F608F6FB
:1006C000802575F012EDA42408F582E5F03400F5DC
:1006D00083E0FEA3E0FFC3EB9FEA9EFFED25E0244D
:1006E00013F8760008A6070DBD089DC3E51E9522E8
:1006F000E51D95214024E51E9520E51D951F401A16
:1007000075230075242875250075263C752700750E
:100710002814752900752A3C8047C3E522951EE5FB
:1007200021951D4024E5229520E521951F401A754D
:10073000230075243C75250075261475270075283F
:1007400028752901752A2C801875230075241475C5
:10075000250075262875270075283C752900752AFF
:10076000B4AC25AD26AE1FAF2012016CAA06AB07B4
:10077000AC23AD24AE1DAF1E12016CEF2BFBEE3A85
:10078000FAAC27AD28AE21AF2212016CEF2BFFEEA1
:100790003AFEE51E2520FDE51D351FFCE5222DFD59
:1007A000E5213CFC12017E8E1B8F1C7C007D061215
:1007B000016CEF2488F51CEE34FFF51BE52A251C9F
:1007C000F51CE529351BF51B7B007A00791B1219F6
:1007D0003FAE1BAF1C22E478D0F608F678BDF67861
:1007E000BDE6FFC3950B400302086CE4FD121360E5
:1007F00078BEA60608A60778BDE6FF7D0112136045
:1008000078C0EEF608EFF678BEE6FC08E6FDD39F6A
:10081000EC9E400EED78C19679C3F7EC189619F767
:100820008012C379C1E778BF96FF19E7189678C29E
:10083000F608A60778BDE6FF121ABAE4FCFDC0046C
:10084000A905AA06AB0778C2E6FE08E6FF7D64129A
:100850000461D00012035B78C2EEF608EFF678D19F
:1008600026F618EE36F678BD060207DFE478D0F6F5
:1008700008F67F07FEFDFC78CC1204111202D0129C
:100880001B37C004C005C006C00778D0E6FE08E6E6
:10089000FFE4FCFD78101203FE121B37D003D002D8
:1008A000D001D000EB2FFFEA3EFEE93DFDE83CFC25
:1008B00078CC12041EE50BFD7C0078CCE6FE08E641
:1008C000FF12017E78D2A60608A607228F1C78BDEB
:1008D0001204360000000012149EE0FEA3E078C16E
:1008E000A60608F6AF1C7E00121AE0EF60030209AC
:1008F000B2AF1C12142AEF6401600E1214C0FEA3E2
:10090000E078C3A60608F6800EE4FDAF1C12136063
:1009100078C3A60608A60778C1E6FE08E6FF08E643
:10092000FC08E6FDD39FEC9E40091214AFE0240AB8
:10093000F0800EC3ED9FEC9E50071214AFE024F63A
:10094000F01214AFE0FFD3648094E4400D12149EC3
:10095000E475F0011201D30209ADC3EF6480941C69
:100960005050AF1C12142AEF64017032E509C31312
:10097000FEE50A13FF12149EE0FCA3E0C39FFFEC08
:100980009EFE1214C0FCA3E0FDC39FEC9E75F01206
:10099000E51C500F1214A3ECF0A3EDF0800F75F0DE
:1009A00012E51C1214A374FFF5F01201D31214AF58
:1009B000E4F022E478C0F678C0E6FFC3950B40036C
:1009C000020A8A75F012EFA42408F582E5F03400DB
:1009D000F583E0FEA3E078C3A60608F618E6FE0855
:1009E000E6FF250AFDE5093EFC78C1F608EDF6C3F1
:1009F0009FEC9E500978C0E675F012020A7F120A39
:100A00008BC006C0071219CE121360AC06AD07D01A
:100A100007D006C3ED9FFFEC9EFE78C5F608EFF603
:100A2000C3EE64809480501418E6FE08E6FF7CFF55
:100A30007DFF12016C78C5A60608A60778DFE6FFE1
:100A4000C378C6E69F7480F5F0186695F0500D12D5
:100A50000A8BAA06AB071219CE121A6A1219CE1205
:100A600016DC78C1E6FC08E6FDD3EF9DEE9C78C06D
:100A7000E675F01240091219C2E04440F0800512F8
:100A800019C2E4F078C0060209B72278C0E6FF7DFB
:100A9000011216DC22E4F51EF51FF523F522F521DF
:100AA000F520F527F526F525F524F51CE51CC3955D
:100AB0000B4003020B5EE4F52AF52B74FFF528F5D5
:100AC00029E4F527F526F525F524F51DE51D25E096
:100AD00024DBF8E4F608F6051DE51DB402EEE4F5A6
:100AE0001DAF1C121657AB07AA06E51D25E024DB37
:100AF000F8A60208A603E4FCFDE5272FF527E52666
:100B00003EF526ED3525F525EC3524F524051DE5C6
:100B10001DC3940240CBAF27AE26AD25AC24E47BA9
:100B200002FAF9F812035B8F278E268D258C24E5B7
:100B30001C1214A0EEF0A3EFF0E4F51DE51DC39523
:100B40001A5016AC26AD27AF1C1211BAAC26AD2731
:100B5000AF1C120003051D80E3051C020AAC228DA8
:100B60001E75F012EDA42408F582E5F03400F5833B
:100B7000E0FCA3E0FD78C4ECF608EDF678C0A61121
:100B800008A61208A60C08A60DC3EF9DEE9C5008FF
:100B9000E478CAF608F6801178C4E6FC08E6FDC3DE
:100BA000EF9D78CBF6EE9C18F6121882548078C62A
:100BB000760008F6AF1E121B4078C8760008A6071C
:100BC00078C7E6184670211218945005AF1E021B14
:100BD00051D378C11218974036AF1E121467EF60D8
:100BE0002E1218824480F02278C7E66401184670FD
:100BF0001ED31218954005AF1E021B4912189450BF
:100C00000EAF1E1215FAEF6006121882547FF02202
:100C1000121A8678D8E6FF64036018EF6401601347
:100C2000EF64026003020CB69000B1E0640160035F
:100C3000020CB6E49000B1F078D8E6FF64026005DB
:100C4000EF6401704012177AEF702CE513B4012C99
:100C5000054BE54BAE4A7002054A14C39517EE9555
:100C600016401978D87603E4F54AF54B121BB212F8
:100C70001B8712100A8005E4F54AF54B78D8E6B4D4
:100C8000010302192878D8E6640370871219281224
:100C90000CB7EF601B121BAF121B81E50878D86000
:100CA000057602020C137601E4F54AF54B020C13AB
:100CB000121BB2020C1322E4F51D1217C18E1B8FFA
:100CC0001C78DAE6250DFF18E6350CFED3E51C9FEF
:100CD000E51B9E40037F0122E4FFEFC3951A504DB0
:100CE000EF25E024D4F8E6FC08E6FD78D9E6FA081A
:100CF000E6FBD3ED9BEC9A4004051D8009C3ED9BF8
:100D0000EC9A5002151DD3E51D64809480400A784A
:100D1000DA06E6187014068011C3E51D648094801D
:100D2000500878DAE616187001160F80ADE51A142F
:100D3000FFEFD394004019EF25E024D2F8E6FC0839
:100D4000E6FDEF25E024D4F8A60408A6051F80E1FF
:100D500078D4A61B08A61C7F0022010B09011A02E9
:100D600002091388010E0202140019021800FA0287
:100D70001600C801080101130102111388020C0BAF
:100D8000B8020F2EE04100B100013900202C58FFBD
:100D900012C109FF12CA09FF12CE09FF12D609FFBC
:100DA00012DE09FF12E509FF12EC09FF12F309FF39
:100DB00012F901FF130201FF130901014600014767
:100DC00001014C0002480000023000000237000020
:100DD000013500013400012F00013600012E000111
:100DE000320001330002D90000024A000002D200A2
:100DF0000000121BA4787FE4F6D8FD7581E0020E96
:100E00003C020E81E493A3F8E493A34003F680012F
:100E1000F208DFF48029E493A3F85407240CC8C334
:100E200033C4540F4420C8834004F456800146F66E
:100E3000DFE4800B0102040810204080900D5AE48A
:100E40007E019360BCA3FF543F30E509541FFEE4CC
:100E500093A360010ECF54C025E060A840B8E4938E
:100E6000A3FAE493A3F8E493A3C8C582C8CAC583D0
:100E7000CAF0A3C8C582C8CAC583CADFE9DEE78055
:100E8000BE1217051218BD43A8A07F0C1218D91264
:100E9000126E7F1E1218D912126E7F3F1218D912CD
:100EA000126E7F331218D912126E7F211218D912C6
:100EB000126E804C120C10121A0B120F93121B0F91
:100EC00050051219F980ED121B9F12159B121B93EE
:100ED000EF541EFF12172D121B93EF30E0057F3FDA
:100EE00012172D121B93EF30E5CA121BB5EF7010CD
:100EF0007F01121A1DEF70087F20121A1DEF600784
:100F00007F3F12199980AD7F3F12198380A6E4F5C7
:100F10001BF51C7F05FE121AECEF70127F06FE1205
:100F20001AECEF70097F07FE121AECEF60637D0583
:100F300075F012EDA42408F582E5F03400F583E0A5
:100F4000FEA3E0FF75F012EDA42404F582E5F03471
:100F500000F583E0FAA3E0FBC39FEA9E402275F010
:100F600012EDA42408F582E5F03400F583E0FEA339
:100F7000E0FFC3EB9FEA9E251CF51CE4351BF51B27
:100F80000DBD08ACD3E51C941EE51B94004002D3B4
:100F900022C322E4F534FFFE121AE0EF600343346B
:100FA000017F017E00121AE0EF60034334027F04E8
:100FB0007E00121AE0EF60034334047F087E0012C3
:100FC0001AE0EF60034334087F037E00121AE0EF5B
:100FD00060034334107F027E00121AE0EF60034387
:100FE0003420E534652FF53685342FE5346003E48D
:100FF000F52E120F0E5010853037853138120681CC
:101000008E308F31E4F52E052E22E4F51FF51EF506
:101010001DF51C78D9F608F6F51BE51BC3951A508B
:10102000131217C1E51B25E024D4F8A60608A6076D
:10103000051B80E6E4F51BE51BC3951A5027E51B4D
:1010400025E024D4F8E6FE08E6FFE4FCFDE51F2FCA
:10105000F51FE51E3EF51EED351DF51DEC351CF5A5
:101060001C051B80D2AF1AAB07E4FAF9F8AF1FAE2C
:101070001EAD1DAC1C12035B78D9A60608A607227C
:10108000F075F012EFA4240CF582E5F03400F5833E
:101090002275F012A42404F582E5F03400F583757E
:1010A000F0022275F012A42400F582E5F03400224B
:1010B00090000B75F012EF12044FEE75F012A4259C
:1010C00083F583E02224FFFFE434FFFEEF25E0FFF9
:1010D000EE33FE082275F012A4240AF582E5F034FE
:1010E00000F58322EF12044FECF0A3EDF022E47838
:1010F000BDF678BDE6FFC3950B505812142A78BF91
:10110000A607E418F678BEE6FFC39403504075F0D6
:1011100005EFA424F5F582E5F03418F583E493FF98
:1011200008E6B5072478BDE6FF08E675F005A424B7
:10113000F7F582E5F03418F583740193FA7402939D
:10114000F5828A8312045F800578BE0680B778BD79
:1011500006809F22E4F51DE51DC3950B5029E4FD93
:10116000AF1D1216DCE51D1213BAEEF0A3EFF075F9
:10117000F012E51DA42410F582E5F03400F583E4B7
:10118000F0A3F0051D80D0E50BC39404500578E072
:10119000768022E50BC39408500578E0764022E57E
:1011A0000BC39410500578E0762022E50BC3942001
:1011B00078E05003761022760822E478C0F6F9EF42
:1011C0001210A3AF8208F608A607E51A1478C0F635
:1011D00078C0E6FFD39400402DEF1210C5E6FA0860
:1011E000E6FB8A832FF582E5833EF583E0FEA3E0EC
:1011F000FF8B828A8378C0E675F00212044FEEF00E
:10120000A3EFF01680CA78C1E6FE08E6F5828E8369
:10121000ECF0A3EDF0AF012285A91CE539704EE595
:10122000AE700675AEA575AEF17D087F05121A5435
:101230007D077F06121A547D807F04121A5475A907
:10124000747DC07F04121A547F407E05EF1F700129
:101250001EEF4E70F77DC07F04121A5475B52085BD
:101260001CA9E5A930E7FB753EC0753901227F60F6
:101270007EEA7D007C008F1E8E1D8D1C8C1BE4F58C
:1012800022F521F520F51FF522F521F520F51FAFF8
:101290001EAE1DAD1CAC1BAB22AA21A920A81FC3EA
:1012A0001203ED501BAF22AE21AD20AC1FEF240185
:1012B000F522E43EF521E43DF520E43CF51F80CF26
:1012C00022424153454C494E45005241570050522D
:1012D0004F434553530053494E47414354004445FF
:1012E00042414354005444454C54410045585056E3
:1012F000414C004E4F495345004E4F4953454553CD
:10130000540041435454485200494E4143545448B8
:1013100052008F1DE4FFEFC3951A5018E51D1210FF
:10132000A3F58375F0021210E4E51D12109112105E
:10133000E40F80E275F012E51DA4240BF582E5F0C0
:101340003400F583E4F0E50FC4F854F0C8E510C4A8
:10135000540F48FFE51D1210D5EFF0AF1D021539EF
:101360008F1D8D1EED3395E0FCD3ED951A7480F83A
:101370006C98401975F012EFA424FEF582E5F03464
:10138000FFF58375F002E51A12044F801BED25E08E
:10139000FFEC33FE75F012E51D1210A6F583E58211
:1013A0002FF582E5833EF583E0FEA3E0FF22EEF019
:1013B000A3EFF09000A2A3E0FF2275F012A4240E88
:1013C000F582E5F03400F58322E0FF9000A5E09F70
:1013D0009000A4E09E22FC9000A5E09D9000A4E077
:1013E0009C22A3E090000E75F01202044FE5351325
:1013F000B39280E535C31313B392A7E535131354A5
:101400003F13B39296E535131313541F13B39297FA
:10141000E535C4540F13B39290E535C41354071344
:10142000B392878532FC8533EA228F1DE4FF75F085
:1014300005EFA424F6F582E5F03418F583E493FD76
:10144000C378D3E69D18E69400501175F005EFA41B
:1014500024F5F582E5F03418F58380070FBF03CE3D
:101460009018FFE493FF22121081E0FEC4540FFD98
:10147000640F60010D121081EE540F121080E0FE17
:10148000EDC454F0FCEE4CF0ED640F6004EDB50ECD
:101490000A121081E0540FF07F01227F0022E51C28
:1014A00075F012A42408F582E5F03400F583227566
:1014B000F012E51CA4240DF582E5F03400F583223A
:1014C00075F012E51CA4240EF582E5F03400F583D6
:1014D000E022E4FFEFC3950B500C75F012EF1219E8
:1014E000C2E4F00F80EEE50FC4F854F0C868FEE5E2
:1014F00010C4540F48FFD394FFEE940078DF4003EC
:1015000076FF22A60722E478BDF678BDE6FFC395F4
:101510000B502512165778BEEEF6FC08EFF6FD7854
:10152000BDE6FF1211BA78BDE6FF08E6FC08E6FD4D
:1015300012000378BD0680D222EF901BC393FEEF0A
:1015400075F003A424A4F8A606EF901BBA93FEEF4F
:1015500075F003A424A2F8A606EF901BCC93FEEF2F
:1015600075F003A424A3F8A60622EF30E0138D3211
:10157000ED600543350180035335FEBDFF0353DAAB
:10158000BFEF30E5138D33ED600543352080035305
:1015900035DFBDFF0353DBBF0213EDEF7805C33327
:1015A000CE33CED8F9FF7C007D2D12017E8F1BE556
:1015B0001B654C6015AD1B7F0112156AC374FF9546
:1015C0001BFD7F2012156A851B4C22AFB5EF30E260
:1015D00003753D01EF30E303753C01EF30E1037526
:1015E0003B01EF30E4047FFFDFFE75B520E53D6091
:1015F00006E4F53D7F01227F0022121081E0FE54B7
:101600000FFD640F60010D121081EE54F012108076
:10161000E04DF0ED640F6004EDB50E0A121081E0AC
:1016200054F0F07F01227F0022E4FFEFC3950B50BE
:1016300025EF121884547FF075F012EFA4240CF5F6
:1016400082E5F03400F583E4F075F012EF121887AC
:1016500054BFF00F80D522AE07EE75F003A424A28C
:10166000F8E6FF121BACEE75F003A424A4F8E6FF25
:10167000121B75EE75F003A424A3F8E6FF121B7B82
:101680001217C122AFA7E4F5A79000ABE5A9F0754A
:10169000A914E5A930E7FB9000ACE5F1F0A3E5F271
:1016A000F0A3E5E2F0E4F5F1F5F275E2C08FA722D0
:1016B0008F218E208D1F8C1E75AC14E53E54F7F5DE
:1016C000AD0075AC188521AD008520AD00851FAD3E
:1016D00000851EAD0075AC14853EAD22EDD3951A84
:1016E00075F012EF4012A42402F582E5F03400F503
:1016F0008375F002E51A8004121094ED12044FE095
:10170000FEA3E0FF2285A71B121AD4121B67121B2F
:101710006E121B59121B60121AA0121B1A1217E329
:10172000121B2E121BA8121B8D851BA72253073FCD
:10173000EFF45535FEE535F45F4EF535EF30E00753
:10174000C374FF9532F532EF30E507C374FF95336C
:10175000F5330213ED43F14E43F23E43A44E538062
:10176000B153F1B153A4B143804E43A53E5390C150
:1017700053F2C153A5C143903E22E4F51DF51BF57C
:101780001CE51CC3950B5013AF1C7E00121AECBF56
:101790000105751D018004051C80E6AF1D22E4785B
:1017A000BDF678BDE6FFC39402501575F003EFA4B3
:1017B0002404F582E5F03419121AC778BD0680E2D8
:1017C0002275B08853B0DF43B01075CE0175B540B7
:1017D000E5B030E5FB85EE2C85ED2DE4F5B0AE2CC3
:1017E000AF2D2275AC0675AD07E5AC20E7FB75ACF7
:1017F0000875AD14E5AC20E7FB75AC0475AD80E56C
:10180000AC20E7FB22AFA7E4F5A79000ABE0F5A979
:10181000E5A930E7FB9000ACE0F5F1A3E0F5F2A319
:10182000E0F5E28FA722E4F5AA53F3C043F340F5B5
:10183000FEF5FD75B08853B0DF43B010E5B030E57C
:10184000FBE4F5B0228E1C8F1D1218A0AE1CAF1D3C
:101850007C7C7D1A120461E47BE87A03F9F81203B8
:101860005B0216B0E4F51C75F003E51CA4240AF530
:1018700082E5F03419121AC7051CE51CC394024016
:10188000E622E51E75F012A4240BF582E5F0340083
:10189000F583E022C378C379CBE79619E71896223F
:1018A00075AC10E4F5AD00F5AD00F5AD00F5AD009B
:1018B000121A4D7F04121B04EF20E1F722E5915428
:1018C000045391FB7595F975947D7593F975927D27
:1018D000439104429143E6802253073F8F35E4F55C
:1018E00032EF30E0037532FFE4F533EF30E5037596
:1018F00033FF0213ED0105FF1AF8020AFF1A7803FD
:1019000078FF1A78FF09B3FF051CFF14D2FF1154AA
:10191000121956120072120A95121BB8121864128C
:101920001629121AAD021B2412168453B6BFE5A95C
:1019300030E7FB75B58C43B6401215CB0218051283
:1019400001E9C39468E5F09401400A74FE75F098CB
:1019500012024C80EA22E4F51CE51CC3950B500CE6
:10196000E4FDFCAF1C121312051C80ED2275B0883B
:1019700075D24E75D33E75AA8A53AFF843AF02E4D1
:10198000F5F32253073FEF423530E0037532FFEFA6
:1019900030E5037533FF0213EDEFF45235EF30E01D
:1019A00003E4F532EF30E503E4F5330213EDE4F53B
:1019B0001BE51BC3950B5009AF1B1208CC051B8000
:1019C000F022A4240BF582E5F03400F5832278C0E0
:1019D000E6FFE4FD22121A3E121218AF19AE1812D9
:1019E00018457F1C021A5C121A3E121218AF15AE6F
:1019F000141218457F1C021A5CD287D290D297D25B
:101A000096D2A7D280E4F5FCF5EA22121506121749
:101A10009E1210EE1207D6121BB90219AEE4FEEFA9
:101A200030E002AE32EF30E502AE33AF0622C0E066
:101A300053917F0549E54970020548D0E03275B5FC
:101A400020E4F53FF53DF53CF53AF53B22E53E4413
:101A500002FD7F04EF4410F5AC8DAD22EF54FC4243
:101A60003EE53E4FFD7F04021A54EF121091ED1235
:101A7000044FEAF0A3EBF022AD07ED1213BAE0FE3B
:101A8000A3E0FF020B5F1215CBEF60069000B1746C
:101A900001F02243F14E43F23E53F1B153F2C12221
:101AA00075F2C175D5FF75A70F759B0122E5087802
:101AB000D8B40103760222760122EF1210D5E07528
:101AC000F010A4FFAEF022F583740193FA74029330
:101AD000F902045BE4F5A753D9BFF5D943D84022F6
:101AE0001210B030E6037F01227F00221210B030C6
:101AF000E7037F01227F00228F1DE4FD1216DCAD7B
:101B00001D020B5FEF4490F5AC000000AFAD22E585
:101B10002EC394C84002D322C322E4F5A775E3C0C4
:101B200075E2022278CC120436000000002275A96A
:101B300004E5A930E7FB22E47B08FAF9F802035B2D
:101B4000121081E0C4540FFF22121081E054F0F013
:101B500022121081E0540FF02253DF7F75DC08223F
:101B600075F1B175D47E2253DF7F75DA422253DFDF
:101B70007F75DB4222EF5407F5AF22EF5407F5AA39
:101B800022121755021826121A9302196D121B9968
:101B9000021910E5345536FF22121B81021BAFAE2D
:101BA00030AF312253D9BF2275B640228FAB22020B
:101BB00019E70219D5AF3522222202010306090ACC
:101BC0000B0C0D070707070707070707050505059E
:051BD0000505050505F7
:00000001FF
