:020000040000FA
:10000000020DFFE4F5AA53F3C043F340F5FEF5FDFE
:1000100075B08853B0DF43B010E5B030E5FBE4F5D0
:10002000B022220211698F0D8E0C8D0B8C0AE4F523
:1000300011F510F50FF50EF511F510F50FF50EAFE2
:100040000DAE0CAD0BAC0AAB11AA10A90FA80EC3D4
:100050001203ED501BAF11AE10AD0FAC0EEF24012B
:10006000F511E43EF510E43DF50FE43CF50E80CFCC
:10007000222222021ABAE709F608DFFA8046E709C7
:10008000F208DFFA803E88828C83E709F0A3DFFA6A
:100090008032E309F608DFFA8078E309F208DFFA34
:1000A000807088828C83E309F0A3DFFA8064898200
:1000B0008A83E0A3F608DFFA805889828A83E0A366
:1000C000F208DFFA804C80D280FA80C680D4806942
:1000D00080F28033801080A680EA809A80A880DA3F
:1000E00080E280CA803389828A83ECFAE493A3C8D1
:1000F000C582C8CCC583CCF0A3C8C582C8CCC58393
:10010000CCDFE9DEE7800D89828A83E493A3F608D9
:10011000DFF9ECFAA9F0EDFB2289828A83ECFAE0A0
:10012000A3C8C582C8CCC583CCF0A3C8C582C8CC3F
:10013000C583CCDFEADEE880DB89828A83E493A38F
:10014000F208DFF980CC88F0EF60010E4E60C388C2
:10015000F0ED2402B4040050B9F582EB2402B4049B
:100160000050AF23234582239000C673EF8DF0A487
:10017000A8F0CF8CF0A428CE8DF0A42EFE22BC00D7
:100180000BBE0029EF8DF084FFADF022E4CCF875B2
:10019000F008EF2FFFEE33FEEC33FCEE9DEC9840C1
:1001A00005FCEE9DFE0FD5F0E9E4CEFD22EDF8F55D
:1001B000F0EE8420D21CFEADF075F008EF2FFFEDBD
:1001C00033FD4007985006D5F0F222C398FD0FD5B5
:1001D000F0EA22C5F0F8A3E028F0C5F0F8E58215B2
:1001E0008270021583E038F022BB010A89828A837B
:1001F000E0F5F0A3E022500687F009E71922BBFEE4
:1002000007E3F5F009E3192289828A83E493F5F084
:1002100074019322BB0110E58229F582E5833AF54A
:1002200083E0F5F0A3E0225009E92582F886F00882
:10023000E622BBFE0AE92582F8E2F5F008E222E5B3
:10024000832AF583E993F5F0A3E99322BB0107899B
:10025000828A830201D3500B09C5F027F7C5F01934
:1002600037F722BBFE0D09F8E325F0F3C5F019E3DB
:1002700038F322F889828A8374019325F0C5F0F857
:10028000E4933822BB010A89828A83F0E5F0A3F067
:10029000225006F709A7F01922BBFE06F3E5F00984
:1002A000F31922F8BB0111E58229F582E5833AF5BD
:1002B00083E8F0E5F0A3F0225009E92582C8F608AA
:1002C000A6F022BBFE09E92582C8F2E5F008F22279
:1002D000E88FF0A4CC8BF0A42CFCE98EF0A42CFCCD
:1002E0008AF0EDA42CFCEA8EF0A4CDA8F08BF0A44B
:1002F0002DCC3825F0FDE98FF0A42CCD35F0FCEBAA
:100300008EF0A4FEA9F0EB8FF0A4CFC5F02ECD396E
:10031000FEE43CFCEAA42DCE35F0FDE43CFC227565
:10032000F008758200EF2FFFEE33FECD33CDCC33D6
:10033000CCC58233C5829BED9AEC99E58298400C3E
:10034000F582EE9BFEED9AFDEC99FC0FD5F0D6E41C
:10035000CEFBE4CDFAE4CCF9A88222B800C1B90002
:1003600059BA002DEC8BF084CFCECDFCE5F0CBF963
:100370007818EF2FFFEE33FEED33FDEC33FCEB335B
:10038000FB10D703994004EB99FB0FD8E5E4F9FA89
:10039000227818EF2FFFEE33FEED33FDEC33FCC96E
:1003A00033C910D7059BE99A4007EC9BFCE99AF901
:1003B0000FD8E0E4C9FAE4CCFB2275F010EF2FFF70
:1003C000EE33FEED33FDCC33CCC833C810D7079BDA
:1003D000EC9AE899400AED9BFDEC9AFCE899F80F3D
:1003E000D5F0DAE4CDFBE4CCFAE4C8F922EB9FF5D2
:1003F000F0EA9E42F0E99D42F0E89C45F022E86078
:100400000FEFC333FFEE33FEED33FDEC33FCD8F1D9
:1004100022E6FB08E6F908E6FA08E6CBF822ECF655
:1004200008EDF608EEF608EFF622ECF0A3EDF0A3E7
:10043000EEF0A3EFF022D083D082E493F6087401AB
:1004400093F608740293F608740393F6740473A485
:100450002582F582E5F03583F583228A838982E45B
:1004600073EC8EF0A4CCC5F0CCCDF8EFA4CEC5F0E3
:100470002DFDE43CFCE8A42EC8C5F03DFDE43CFCA9
:10048000EFA4FFE5F028FEE43DFDE43CFC22BB01C7
:100490000689828A83E0225002E722BBFE02E32221
:1004A00089828A83E49322BB010CE58229F582E5E7
:1004B000833AF583E0225006E92582F8E622BBFE66
:1004C00006E92582F8E222E58229F582E5833AF5FC
:1004D00083E49322BB010689828A83F0225002F7CB
:1004E00022BBFE01F322FAE6FB0808E6F925F0F646
:1004F00018E6CA3AF622D083D082F8E493701274D8
:100500000193700DA3A393F8740193F5828883E49B
:10051000737402936860EFA3A3A380DFE49000A24A
:10052000F0A3F09000A2E0FCA3E0FDC3952474804A
:10053000F8EC6480984003020680AF05E4FD1214D5
:10054000489000A41214967D011214489000A6123F
:100550001496121B539000A9EEF0A3EFF09000A6A2
:10056000E0FEA3D31214B1402B9000A9E0FEA3E05B
:10057000FF9000A7E02FFD9000A6E03ED31214BE2E
:1005800040129000A7E02FFF9000A6E03E9000A44C
:10059000F0A3EFF09000A6E0FEA3C31214B1502D1B
:1005A0009000A9E0FEA3E0FFC39000A7E09FFD90AC
:1005B00000A6E09EC31214BE5013C39000A7E09F94
:1005C000FF9000A6E09E9000A4F0A3EFF0E490005E
:1005D000A6F0A312149A1215129000A8EFF0900042
:1005E000A2E0FE1214CAEE75F012A42583F583E092
:1005F000FCA3E0FDA3E0FEA3E0FFC00778EEE6FB6E
:10060000E4FAF9F8D00712035BC004A905AA06AB07
:100610000778EEE624FFFFE434FFFEE4FCFDD000A3
:100620001202D0C004C005C006C00778EEE6FBE4A5
:10063000FAF9F89000A4E0FCA3E0FDA3E0FEA3E03B
:10064000FF12035BD003D002D001D000EB2FFFEAF2
:100650003EFEE93DFDE83CFC9000A2E0FA1214CA1F
:10066000EA75F012A42583F58312042A9000A3E012
:1006700004F060030205239000A2E004F0020523C9
:1006800022E4F50AF50B7D0575F012EDA42408F5BA
:1006900082E5F03400F583E0FEA3E0FF75F012ED93
:1006A000A42404F582E5F03400F583E0FAA3E0FB2E
:1006B000C39FEA9E500CED25E02402F8E4F608F60C
:1006C000802575F012EDA42408F582E5F03400F5DC
:1006D00083E0FEA3E0FFC3EB9FEA9EFFED25E0244D
:1006E00002F8760008A6070DBD089DC3E50D95111B
:1006F000E50C95104024E50D950FE50C950E401A7C
:1007000075120075132875140075153C7516007563
:10071000171475180075193C8047C3E511950DE550
:1007200010950C4024E511950FE510950E401A75B3
:10073000120075133C7514007515147516007517A5
:100740002875180175192C80187512007513147509
:10075000140075152875160075173C751800751965
:10076000B4AC14AD15AE0EAF0F12016CAA06AB07F8
:10077000AC12AD13AE0CAF0D12016CEF2BFBEE3AC9
:10078000FAAC16AD17AE10AF1112016CEF2BFFEEE5
:100790003AFEE50D250FFDE50C350EFCE5112DFDAE
:1007A000E5103CFC12017E8E0A8F0B7C007D061248
:1007B000016CEF2488F50BEE34FFF50AE519250BE3
:1007C000F50BE518350AF50A7B007A00790A12194B
:1007D000DBAE0AAF0B22E478DEF608F678CBF678CB
:1007E000CBE6FFC39524400302086CE4FD121448D5
:1007F00078CCA60608A60778CBE6FF7D0112144840
:1008000078CEEEF608EFF678CCE6FC08E6FDD39F4E
:10081000EC9E400EED78CF9679D1F7EC189619F74B
:100820008012C379CFE778CD96FF19E7189678D074
:10083000F608A60778CBE6FF121B53E4FCFDC004C4
:10084000A905AA06AB0778D0E6FE08E6FF7D64128C
:100850000461D00012035B78D0EEF608EFF678DF83
:1008600026F618EE36F678CB060207DFE478DEF6D9
:1008700008F67F07FEFDFC78DA1204111202D0128E
:100880001BCFC004C005C006C00778DEE6FE08E640
:10089000FFE4FCFD78101203FE121BCFD003D00240
:1008A000D001D000EB2FFFEA3EFEE93DFDE83CFC25
:1008B00078DA12041EE524FD7C0078DAE6FE08E60C
:1008C000FF12017E78E0A60608A607228F0B78CBE0
:1008D000120436000000001215C0E0FEA3E078CF3D
:1008E000A60608F6AF0B7E00121B79EF6003020923
:1008F000B2AF0B121512EF6401600E1215E2FEA3E7
:10090000E078D1A60608F6800EE4FDAF0B1214487D
:1009100078D1A60608A60778CFE6FE08E6FF08E627
:10092000FC08E6FDD39FEC9E40091215D1E0240A95
:10093000F0800EC3ED9FEC9E50071215D1E024F617
:10094000F01215D1E0FFD3648094E4400D1215C07D
:10095000E475F0011201D30209ADC3EF6480941C69
:100960005050AF0B121512EF64017032E522C31321
:10097000FEE52313FF1215C0E0FCA3E0C39FFFECCC
:100980009EFE1215E2FCA3E0FDC39FEC9E75F012E3
:10099000E50B500F1215C5ECF0A3EDF0800F75F0CC
:1009A00012E50B1215C574FFF5F01201D31215D123
:1009B000E4F022E478CEF678CEE6FFC39524400337
:1009C000020A8A75F012EFA42408F582E5F03400DB
:1009D000F583E0FEA3E078D1A60608F618E6FE0847
:1009E000E6FF2523FDE5223EFC78CFF608EDF6C3B1
:1009F0009FEC9E500978CEE675F012020A7F120A2B
:100A00008BC006C007121A7D121448AC06AD07D081
:100A100007D006C3ED9FFFEC9EFE78D3F608EFF6F5
:100A2000C3EE64809480501418E6FE08E6FF7CFF55
:100A30007DFF12016C78D3A60608A60778EDE6FFC5
:100A4000C378D4E69F7480F5F0186695F0500D12C7
:100A50000A8BAA06AB07121A7D121AF6121A7D1219
:100A600017CE78CFE6FC08E6FDD3EF9DEE9C78CE5E
:100A7000E675F0124009121A71E04440F080051248
:100A80001A71E4F078CE060209B72278CEE6FF7D2F
:100A9000011217CE22E4F50DF50EF512F511F51041
:100AA000F50FF516F515F514F513F50BE50BC395D4
:100AB000244003020B5EE4F519F51A74FFF517F5EF
:100AC00018E4F516F515F514F513F50CE50C25E00D
:100AD00024E9F8E4F608F6050CE50CB402EEE4F5BA
:100AE0000CAF0B121749AB07AA06E50C25E024E969
:100AF000F8A60208A603E4FCFDE5162FF516E51599
:100B00003EF515ED3514F514EC3513F513050CE52C
:100B10000CC3940240CBAF16AE15AD14AC13E47BFE
:100B200002FAF9F812035B8F168E158D148C13E5FB
:100B30000B1215C2EEF0A3EFF0E4F50CE50CC39533
:100B4000335016AC15AD16AF0B12129FAC15AD1687
:100B5000AF0B12108C050C80E3050B020AAC228D42
:100B60000D75F012EDA42408F582E5F03400F5834C
:100B7000E0FCA3E0FD78D2ECF608EDF678CEA62AEC
:100B800008A62B08A62508A626C3EF9DEE9C5008B4
:100B9000E478D8F608F6801178D2E6FC08E6FDC3C2
:100BA000EF9D78D9F6EE9C18F6121905548078D48A
:100BB000760008F6AF0D121BD878D6760008A60787
:100BC00078D5E6184670211219175005AF0D021B93
:100BD000E9D378CF12191A4036AF0D121589EF609C
:100BE0002E1219054480F02278D5E664011846706B
:100BF0001ED31219184005AF0D021BE11219175030
:100C00000EAF0D1216ECEF6006121905547FF0229C
:100C1000121B1278E6E6FF64036018EF64016013AC
:100C2000EF64026003020CB69000B1E0640160035F
:100C3000020CB6E49000B1F078E6E6FF64026005CD
:100C4000EF6401704012181CEF702CE52CB4012CDD
:100C5000055AE55AAE597002055914C39530EE9500
:100C60002F401978E67603E4F559F55A121C4C1218
:100C70001C1F1210168005E4F559F55A78E6E6B403
:100C800001030219C478E6E6640370871219C412DE
:100C90000D5CEF601B121C49121C19E52178E660FF
:100CA000057602020C137601E4F559F55A020C138D
:100CB000121C4C020C1322012409013302022213DC
:100CC00088012702022D0019023100FA022F00C804
:100CD000012101012C00022A138802250BB80228E9
:100CE0002EE04100B100014800202C66FF13A90945
:100CF000FF13B209FF13B609FF13BE09FF13C6099C
:100D0000FF13CD09FF13D409FF13DB09FF13E10122
:100D1000FF13EA01FF13F101015500015601011D06
:100D200000011E00011F00013FA0C100C181025748
:100D3000000002360000023D0000013B00013A00C5
:100D4000013500013C000134000138000139000286
:100D5000E700000259000002E0000000E4F50C1278
:100D600018638E0A8F0B78E8E62526FF18E63525EE
:100D7000FED3E50B9FE50A9E40037F0122E4FFEFCF
:100D8000C39533504DEF25E024E2F8E6FC08E6FD7C
:100D900078E7E6FA08E6FBD3ED9BEC9A4004050CF5
:100DA0008009C3ED9BEC9A5002150CD3E50C6480CE
:100DB0009480400A78E806E6187014068011C3E5AE
:100DC0000C64809480500878E8E616187001160FBD
:100DD00080ADE53314FFEFD394004019EF25E024F4
:100DE000E0F8E6FC08E6FDEF25E024E2F8A60408BA
:100DF000A6051F80E178E2A60A08A60B7F00221252
:100E00001C36787FE4F6D8FD7581EE020E49020E9D
:100E10008EE493A3F8E493A34003F68001F208DF85
:100E2000F48029E493A3F85407240CC8C333C454B2
:100E30000F4420C8834004F456800146F6DFE48066
:100E40000B0102040810204080900CB7E47E01934F
:100E500060BCA3FF543F30E509541FFEE493A36038
:100E6000010ECF54C025E060A840B8E493A3FAE493
:100E700093A3F8E493A3C8C582C8CAC583CAF0A3E4
:100E8000C8C582C8CAC583CADFE9DEE780BEE4F50B
:100E900008F50912154F1219407F3F121A1F7F40A3
:100EA0007E1F7D007C001200267F3F121A35120C37
:100EB00010121AA8120F9F30013E121353EF4E70FA
:100EC0000C121C52EF7006E53F5460602B121C316F
:100ED0008E088F09EFF547E508F546121C4F8F4540
:100EE000E53F4480F544C201533F9FD2997F5A7E2B
:100EF000007D007C001200263000B3AF4112195C67
:100F0000E54030E007AD427F0112168CE54030E548
:100F10009DAD437F2012168C8094E4F50AF50B7F7B
:100F200005FE121B85EF70127F06FE121B85EF7007
:100F3000097F07FE121B85EF60637D0575F012EDDA
:100F4000A42408F582E5F03400F583E0FEA3E0FF79
:100F500075F012EDA42404F582E5F03400F583E089
:100F6000FAA3E0FBC39FEA9E402275F012EDA42491
:100F700008F582E5F03400F583E0FEA3E0FFC3EB63
:100F80009FEA9E250BF50BE4350AF50A0DBD08AC6A
:100F9000D3E50B941EE50A94004002D322C322E459
:100FA000F53AFFFE121B79EF6003433A017F017EA1
:100FB00000121B79EF6003433A027F047E00121B8C
:100FC00079EF6003433A047F087E00121B79EF60DB
:100FD00003433A087F037E00121B79EF6003433A14
:100FE000107F027E00121B79EF6003433A20E53A3E
:100FF0006535F53C853A35E53A6003E4F5348536E8
:101000003D85373E120F1A500A1206818E368F37F1
:10101000E4F534053422E4F50EF50DF50CF50B7806
:10102000E7F608F6F50AE50AC3953350131218637C
:10103000E50A25E024E2F8A60608A607050A80E6E8
:10104000E4F50AE50AC395335027E50A25E024E2D2
:10105000F8E6FE08E6FFE4FCFDE50E2FF50EE50DD3
:101060003EF50DED350CF50CEC350BF50B050A8056
:10107000D2AF33AB07E4FAF9F8AF0EAE0DAD0CAC5E
:101080000B12035B78E7A60608A607228C1B8D1CB3
:10109000E478CEF608F6EF75F012A42404F9740093
:1010A00035F008760108F608A601E5331478CFF686
:1010B00078CFE6D39400402CE6FD12114086030859
:1010C000E6FA08E6F98F828E83120214FFAEF075FD
:1010D000F002EDA4F58285F083EE8FF01202A37882
:1010E000CF1680CC78D0860308E6FA08E6F9E51B2F
:1010F000851CF012028478CEE6FF22F075F012EF24
:10110000A4240CF582E5F03400F5832275F012A4D6
:101110002404F582E5F03400F58375F0022275F0C1
:1011200012A42400F582E5F034002290000B75F043
:1011300012EF12044FEE75F012A42583F583E0221E
:1011400024FFFFE434FFFEEF25E0FFEE33FE08222C
:1011500075F012A4240AF582E5F03400F58322EF3D
:1011600012044FECF0A3EDF022C0E0C0D075D00027
:10117000C00030983AE51DC39404503085991FC2D1
:10118000987440251DF8A61F051DC200E51DC394D7
:1011900004401C751D00E54030E704D20080034385
:1011A0003F20E54030E608433F408003751D003096
:1011B000991AC299E51EC39404500C7444251EF874
:1011C000E6F599051E8005751E00D201D000D0D02D
:1011D000D0E032E478CBF678CBE6FFC395245058C4
:1011E00012151278CDA607E418F678CCE6FFC39462
:1011F00003504075F005EFA42478F582E5F034192A
:10120000F583E493FF08E6B5072478CBE6FF08E60C
:1012100075F005A4247AF582E5F03419F58374019C
:1012200093FA740293F5828A8312045F800578CC66
:101230000680B778CB06809F22E4F50CE50CC395B9
:10124000245029E4FDAF0C1217CEE50C1214A2EEC7
:10125000F0A3EFF075F012E50CA42410F582E5F090
:101260003400F583E4F0A3F0050C80D0E524C394AA
:1012700004500578EE768022E524C3940850057862
:10128000EE764022E524C39410500578EE762022B5
:10129000E524C3942078EE5003761022760822E4E9
:1012A00078CEF6F9EF12111EAF8208F608A607E510
:1012B000331478CEF678CEE6FFD39400402DEF12AB
:1012C0001140E6FA08E6FB8A832FF582E5833EF5B6
:1012D00083E0FEA3E0FF8B828A8378CEE675F0027E
:1012E00012044FEEF0A3EFF01680CA78CFE6FE08A6
:1012F000E6F5828E83ECF0A3EDF0AF012285A90B19
:10130000E548704EE5AE700675AEA575AEF17D0888
:101310007F05121AE07D077F06121AE07D807F04A8
:10132000121AE075A9747DC07F04121AE07F407E16
:1013300005EF1F70011EEF4E70F77DC07F04121A7B
:10134000E075B520850BA9E5A930E7FB754DC075A3
:10135000480122C3E537953EFFE536953DFED3EFC4
:1013600094B4EE94004011E537953ECFE536953DB7
:10137000CF2498CF34FEFE22C3E53E9537FFE53DEE
:101380009536FED3EF94B4EE94004011E537953EC8
:10139000CFE536953DCF2468CF3401FE22C3E53733
:1013A000953EFFE536953DFE22424153454C494E60
:1013B00045005241570050524F4345535300534943
:1013C0004E47414354004445424143540054444530
:1013D0004C54410045585056414C004E4F495345DE
:1013E000004E4F49534545535400414354544852CD
:1013F00000494E414354544852008F0CE4FFEFC360
:1014000095335018E50C12111EF58375F002121178
:101410005FE50C12110C12115F0F80E275F012E5FE
:101420000CA4240BF582E5F03400F583E4F0E52804
:10143000C4F854F0C8E529C4540F48FFE50C121154
:1014400050EFF0AF0C02165B8F0C8D0DED3395E075
:10145000FCD3ED95337480F86C98401975F012EF59
:10146000A424FEF582E5F034FFF58375F002E53340
:1014700012044F801BED25E0FFEC33FE75F012E502
:101480000C121121F583E5822FF582E5833EF58369
:10149000E0FEA3E0FF22EEF0A3EFF09000A2A3E0B5
:1014A000FF2275F012A4240EF582E5F03400F583D6
:1014B00022E0FF9000A5E09F9000A4E09E22FC9017
:1014C00000A5E09D9000A4E09C22A3E090000E7592
:1014D000F01202044FE53B13B39280E53BC31313B4
:1014E000B392A7E53B1313543F13B39296E53B1316
:1014F0001313541F13B39297E53BC4540F13B392C5
:1015000090E53BC413540713B392878538FC8539A3
:10151000EA228F0CE4FF75F005EFA42479F582E54B
:10152000F03419F583E493FDC378E1E69D18E69461
:1015300000501175F005EFA42478F582E5F0341918
:10154000F58380070FBF03CE901982E493FF2285B5
:10155000A70A121B6D121BF8121BFF121BF1121BA4
:10156000A8121B39121B2C121C42121885121BC602
:10157000121C3A121A5E121993121BB2121C3E125E
:101580001C25121C06850AA7221210FCE0FEC4547A
:101590000FFD640F60010D1210FCEE540F1210FBD2
:1015A000E0FEEDC454F0FCEE4CF0ED640F6004ED91
:1015B000B5270A1210FCE0540FF07F01227F0022B1
:1015C000E50B75F012A42408F582E5F03400F583EC
:1015D0002275F012E50BA4240DF582E5F03400F538
:1015E000832275F012E50BA4240EF582E5F0340099
:1015F000F583E022E4FFEFC39524500C75F012EF61
:10160000121A71E4F00F80EEE528C4F854F0C868AF
:10161000FEE529C4540F48FFD394FFEE940078ED03
:10162000400376FF22A60722E478CBF678CBE6FFCC
:10163000C39524502512174978CCEEF6FC08EFF636
:10164000FD78CBE6FF12129F78CBE6FF08E6FC0898
:10165000E6FD12108C78CB0680D222EF901C5E93B0
:10166000FEEF75F003A424B2F8A606EF901C559384
:10167000FEEF75F003A424B0F8A606EF901C679364
:10168000FEEF75F003A424B1F8A60622EF30E013B4
:101690008D38ED6005433B018003533BFEBDFF03E6
:1016A00053DABFEF30E5138D39ED6005433B208001
:1016B00003533BDFBDFF0353DBBF0214D5AFB5EFD0
:1016C00030E203754C01EF30E303754B01EF30E17D
:1016D00003754A01EF30E4047FFFDFFE75B520E5B6
:1016E0004C6006E4F54C7F01227F00221210FCE0E2
:1016F000FE540FFD640F60010D1210FCEE54F01249
:1017000010FBE04DF0ED640F6004EDB5270A1210F8
:10171000FCE054F0F07F01227F0022E4FFEFC3954C
:10172000245025EF121907547FF075F012EFA4240E
:101730000CF582E5F03400F583E4F075F012EF1259
:10174000190A54BFF00F80D522AE07EE75F003A43E
:1017500024B0F8E6FF121C46EE75F003A424B2F89C
:10176000E6FF121C0DEE75F003A424B1F8E6FF129B
:101770001C1312186322AFA7E4F5A79000ABE5A9EC
:10178000F075A914E5A930E7FB9000ACE5F1F0A3F2
:10179000E5F2F0A3E5E2F0E4F5F1F5F275E2C08FD1
:1017A000A7228F108E0F8D0E8C0D75AC14E54D5445
:1017B000F7F5AD0075AC188510AD00850FAD00854F
:1017C0000EAD00850DAD0075AC14854DAD22EDD389
:1017D000953375F012EF4012A42402F582E5F0343F
:1017E00000F58375F002E533800412110FED120449
:1017F0004FE0FEA3E0FF2243F14E43F23E43A44EEE
:101800005380B153F1B153A4B143804E43A53E532D
:1018100090C153F2C153A5C143903E22E4F50CF5AB
:101820000AF50BE50BC395245013AF0B7E00121B7A
:1018300085BF0105750C018004050B80E6AF0C2205
:10184000E478CBF678CBE6FFC39402501575F0032D
:10185000EFA42487F582E5F03419121B6078CB06DB
:1018600080E22275B08853B0DF43B01075CE0175A9
:10187000B540E5B030E5FB85EE1B85ED1CE4F5B029
:10188000AE1BAF1C2275AC0675AD07E5AC20E7FBBF
:1018900075AC0875AD14E5AC20E7FB75AC0475AD0F
:1018A00080E5AC20E7FB22AFA7E4F5A79000ABE012
:1018B000F5A9E5A930E7FB9000ACE0F5F1A3E0F570
:1018C000F2A3E0F5E28FA7228E0B8F0C121923AE44
:1018D0000BAF0C7C7C7D1A120461E47BE87A03F97F
:1018E000F812035B0217A2E4F50B75F003E50BA4F5
:1018F000248DF582E5F03419121B60050BE50BC34E
:10190000940240E622E50D75F012A4240BF582E561
:10191000F03400F583E022C378D179D9E79619E74E
:1019200018962275AC10E4F5AD00F5AD00F5AD00EC
:10193000F5AD00121AD97F04121B9DEF20E1F722AA
:10194000E59154045391FB7595F975947D7593F960
:1019500075927D439104429143E6802253073F8F65
:101960003BE4F538EF30E0037538FFE4F539EF304C
:10197000E5037539FF0214D50105FF1B91020AFF2B
:101980001B040378FF1B04FF09B3FF051CFF15F4BC
:10199000FF1239E59154045391FB7595F975947DC7
:1019A0007593F975927D4391044291221219F212B6
:1019B0000022120A951200711218E712171B121B4F
:1019C00046021BBC12177653B6BFE5A930E7FB757C
:1019D000B58C43B6401216BD0218A71201E9C39494
:1019E00068E5F09401400A74FE75F09812024C808C
:1019F000EA22E4F50BE50BC39524500CE4FDFCAFA3
:101A00000B1213FA050B80ED2275B08875D24E7556
:101A1000D33E75AA8A53AFF843AF02E4F5F32253DD
:101A2000073FEF423B30E0037538FFEF30E50375C9
:101A300039FF0214D5EFF4523BEF30E003E4F53800
:101A4000EF30E503E4F5390214D5E4F50AE50AC3FD
:101A500095245009AF0A1208CC050A80F022AF88FD
:101A60005388AF758DA9EF5440FEEF54104E428855
:101A700022A4240BF582E5F03400F5832278CEE62B
:101A8000FFE4FD22121ACA1212FDAF32AE31121853
:101A9000C87F1C021AE8121ACA1212FDAF2EAE2D10
:101AA0001218C87F1C021AE81216281218401211C8
:101AB000D31207D6120072021A4AC0E053917F0572
:101AC00058E55870020557D0E03275B520E4F54E60
:101AD000F54CF54BF549F54A22E54D4402FD7F04EE
:101AE000EF4410F5AC8DAD22EF54FC424DE54D4F67
:101AF000FD7F04021AE0EF12110CED12044FEAF020
:101B0000A3EBF022AD07ED1214A2E0FEA3E0FF026A
:101B10000B5F1216BDEF60069000B17401F0224316
:101B2000F14E43F23E53F1B153F2C122E4F5A775F1
:101B3000E3C075E10175E2022275F2C175D5FF754A
:101B4000A70F759B0122E52178E6B40103760222F6
:101B5000760122EF121150E075F010A4FFAEF022D2
:101B6000F583740193FA740293F902045BE4F5A718
:101B700053D9BFF5D943D8402212112B30E6037F49
:101B800001227F002212112B30E7037F01227F0008
:101B9000228F0CE4FD1217CEAD0C020B5FEF4490C8
:101BA000F5AC000000AFAD2275A41075F1B175D48D
:101BB0004E22758E087589204388402278DA1204F7
:101BC00036000000002275A904E5A930E7FB22E4F5
:101BD0007B08FAF9F802035B1210FCE0C4540FFF13
:101BE000221210FCE054F0F0221210FCE0540FF02E
:101BF0002253DF7F75DC082253DF7F75DA422253E0
:101C0000DF7F75DB422275A89075B81022EF54076C
:101C1000F5AF22EF5407F5AA221217F702000312BC
:101C20001B1F021A09121C2B0219AC121C19021CD0
:101C300049AE36AF372253D9BF2275B640224398FA
:101C4000102275EF06228FAB22021A96021A84AF79
:101C50003A22AF3C2202010306090A0B0C0D0707CA
:101C60000707070707070705050505050505050516
:00000001FF
