:020000040000FA
:10000000020E97E4F5AA53F3C043F340F5FEF5FD65
:1000100075B08853B0DF43B010E5B030E5FBE4F5D0
:10002000B02222020FAB8F0D8E0C8D0B8C0AE4F5E3
:1000300011F510F50FF50EF511F510F50FF50EAFE2
:100040000DAE0CAD0BAC0AAB11AA10A90FA80EC3D4
:100050001203ED501BAF11AE10AD0FAC0EEF24012B
:10006000F511E43EF510E43DF50FE43CF50E80CFCC
:10007000222222021AD3E709F608DFFA8046E709AE
:10008000F208DFFA803E88828C83E709F0A3DFFA6A
:100090008032E309F608DFFA8078E309F208DFFA34
:1000A000807088828C83E309F0A3DFFA8064898200
:1000B0008A83E0A3F608DFFA805889828A83E0A366
:1000C000F208DFFA804C80D280FA80C680D4806942
:1000D00080F28033801080A680EA809A80A880DA3F
:1000E00080E280CA803389828A83ECFAE493A3C8D1
:1000F000C582C8CCC583CCF0A3C8C582C8CCC58393
:10010000CCDFE9DEE7800D89828A83E493A3F608D9
:10011000DFF9ECFAA9F0EDFB2289828A83ECFAE0A0
:10012000A3C8C582C8CCC583CCF0A3C8C582C8CC3F
:10013000C583CCDFEADEE880DB89828A83E493A38F
:10014000F208DFF980CC88F0EF60010E4E60C388C2
:10015000F0ED2402B4040050B9F582EB2402B4049B
:100160000050AF23234582239000C673EF8DF0A487
:10017000A8F0CF8CF0A428CE8DF0A42EFE22BC00D7
:100180000BBE0029EF8DF084FFADF022E4CCF875B2
:10019000F008EF2FFFEE33FEEC33FCEE9DEC9840C1
:1001A00005FCEE9DFE0FD5F0E9E4CEFD22EDF8F55D
:1001B000F0EE8420D21CFEADF075F008EF2FFFEDBD
:1001C00033FD4007985006D5F0F222C398FD0FD5B5
:1001D000F0EA22C5F0F8A3E028F0C5F0F8E58215B2
:1001E0008270021583E038F022BB010A89828A837B
:1001F000E0F5F0A3E022500687F009E71922BBFEE4
:1002000007E3F5F009E3192289828A83E493F5F084
:1002100074019322BB0110E58229F582E5833AF54A
:1002200083E0F5F0A3E0225009E92582F886F00882
:10023000E622BBFE0AE92582F8E2F5F008E222E5B3
:10024000832AF583E993F5F0A3E99322BB0107899B
:10025000828A830201D3500B09C5F027F7C5F01934
:1002600037F722BBFE0D09F8E325F0F3C5F019E3DB
:1002700038F322F889828A8374019325F0C5F0F857
:10028000E4933822BB010A89828A83F0E5F0A3F067
:10029000225006F709A7F01922BBFE06F3E5F00984
:1002A000F31922F8BB0111E58229F582E5833AF5BD
:1002B00083E8F0E5F0A3F0225009E92582C8F608AA
:1002C000A6F022BBFE09E92582C8F2E5F008F22279
:1002D000E88FF0A4CC8BF0A42CFCE98EF0A42CFCCD
:1002E0008AF0EDA42CFCEA8EF0A4CDA8F08BF0A44B
:1002F0002DCC3825F0FDE98FF0A42CCD35F0FCEBAA
:100300008EF0A4FEA9F0EB8FF0A4CFC5F02ECD396E
:10031000FEE43CFCEAA42DCE35F0FDE43CFC227565
:10032000F008758200EF2FFFEE33FECD33CDCC33D6
:10033000CCC58233C5829BED9AEC99E58298400C3E
:10034000F582EE9BFEED9AFDEC99FC0FD5F0D6E41C
:10035000CEFBE4CDFAE4CCF9A88222B800C1B90002
:1003600059BA002DEC8BF084CFCECDFCE5F0CBF963
:100370007818EF2FFFEE33FEED33FDEC33FCEB335B
:10038000FB10D703994004EB99FB0FD8E5E4F9FA89
:10039000227818EF2FFFEE33FEED33FDEC33FCC96E
:1003A00033C910D7059BE99A4007EC9BFCE99AF901
:1003B0000FD8E0E4C9FAE4CCFB2275F010EF2FFF70
:1003C000EE33FEED33FDCC33CCC833C810D7079BDA
:1003D000EC9AE899400AED9BFDEC9AFCE899F80F3D
:1003E000D5F0DAE4CDFBE4CCFAE4C8F922EB9FF5D2
:1003F000F0EA9E42F0E99D42F0E89C45F022E86078
:100400000FEFC333FFEE33FEED33FDEC33FCD8F1D9
:1004100022E6FB08E6F908E6FA08E6CBF822ECF655
:1004200008EDF608EEF608EFF622ECF0A3EDF0A3E7
:10043000EEF0A3EFF022D083D082E493F6087401AB
:1004400093F608740293F608740393F6740473A485
:100450002582F582E5F03583F583228A838982E45B
:1004600073EC8EF0A4CCC5F0CCCDF8EFA4CEC5F0E3
:100470002DFDE43CFCE8A42EC8C5F03DFDE43CFCA9
:10048000EFA4FFE5F028FEE43DFDE43CFC22BB01C7
:100490000689828A83E0225002E722BBFE02E32221
:1004A00089828A83E49322BB010CE58229F582E5E7
:1004B000833AF583E0225006E92582F8E622BBFE66
:1004C00006E92582F8E222E58229F582E5833AF5FC
:1004D00083E49322BB010689828A83F0225002F7CB
:1004E00022BBFE01F322FAE6FB0808E6F925F0F646
:1004F00018E6CA3AF622D083D082F8E493701274D8
:100500000193700DA3A393F8740193F5828883E49B
:10051000737402936860EFA3A3A380DFE49000A24A
:10052000F0A3F09000A2E0FCA3E0FDC3952474804A
:10053000F8EC6480984003020680AF05E4FD1214D5
:10054000619000A41214AF7D011214619000A612F4
:1005500014AF121B6C9000A9EEF0A3EFF09000A670
:10056000E0FEA3D31214CA402B9000A9E0FEA3E042
:10057000FF9000A7E02FFD9000A6E03ED31214D715
:1005800040129000A7E02FFF9000A6E03E9000A44C
:10059000F0A3EFF09000A6E0FEA3C31214CA502D02
:1005A0009000A9E0FEA3E0FFC39000A7E09FFD90AC
:1005B00000A6E09EC31214D75013C39000A7E09F7B
:1005C000FF9000A6E09E9000A4F0A3EFF0E490005E
:1005D000A6F0A31214B312152B9000A8EFF0900010
:1005E000A2E0FE1214E3EE75F012A42583F583E079
:1005F000FCA3E0FDA3E0FEA3E0FFC00778EFE6FB6D
:10060000E4FAF9F8D00712035BC004A905AA06AB07
:100610000778EFE624FFFFE434FFFEE4FCFDD000A2
:100620001202D0C004C005C006C00778EFE6FBE4A4
:10063000FAF9F89000A4E0FCA3E0FDA3E0FEA3E03B
:10064000FF12035BD003D002D001D000EB2FFFEAF2
:100650003EFEE93DFDE83CFC9000A2E0FA1214E306
:10066000EA75F012A42583F58312042A9000A3E012
:1006700004F060030205239000A2E004F0020523C9
:1006800022E4F50AF50B7D0575F012EDA42408F5BA
:1006900082E5F03400F583E0FEA3E0FF75F012ED93
:1006A000A42404F582E5F03400F583E0FAA3E0FB2E
:1006B000C39FEA9E500CED25E02402F8E4F608F60C
:1006C000802575F012EDA42408F582E5F03400F5DC
:1006D00083E0FEA3E0FFC3EB9FEA9EFFED25E0244D
:1006E00002F8760008A6070DBD089DC3E50D95111B
:1006F000E50C95104024E50D950FE50C950E401A7C
:1007000075120075132875140075153C7516007563
:10071000171475180075193C8047C3E511950DE550
:1007200010950C4024E511950FE510950E401A75B3
:10073000120075133C7514007515147516007517A5
:100740002875180175192C80187512007513147509
:10075000140075152875160075173C751800751965
:10076000B4AC14AD15AE0EAF0F12016CAA06AB07F8
:10077000AC12AD13AE0CAF0D12016CEF2BFBEE3AC9
:10078000FAAC16AD17AE10AF1112016CEF2BFFEEE5
:100790003AFEE50D250FFDE50C350EFCE5112DFDAE
:1007A000E5103CFC12017E8E0A8F0B7C007D061248
:1007B000016CEF2488F50BEE34FFF50AE519250BE3
:1007C000F50BE518350AF50A7B007A00790A12194B
:1007D000F4AE0AAF0B22E478DFF608F678CCF678B0
:1007E000CCE6FFC39524400302086CE4FD121461BB
:1007F00078CDA60608A60778CCE6FF7D0112146125
:1008000078CFEEF608EFF678CDE6FC08E6FDD39F4C
:10081000EC9E400EED78D09679D2F7EC189619F749
:100820008012C379D0E778CE96FF19E7189678D171
:10083000F608A60778CCE6FF121B6CE4FCFDC004AA
:10084000A905AA06AB0778D1E6FE08E6FF7D64128B
:100850000461D00012035B78D1EEF608EFF678E081
:1008600026F618EE36F678CC060207DFE478DFF6D7
:1008700008F67F07FEFDFC78DB1204111202D0128D
:100880001BE8C004C005C006C00778DFE6FE08E626
:10089000FFE4FCFD78101203FE121BE8D003D00227
:1008A000D001D000EB2FFFEA3EFEE93DFDE83CFC25
:1008B00078DB12041EE524FD7C0078DBE6FE08E60A
:1008C000FF12017E78E1A60608A607228F0B78CCDE
:1008D000120436000000001215D9E0FEA3E078D023
:1008E000A60608F6AF0B7E00121B92EF600302090A
:1008F000B2AF0B12152BEF6401600E1215FBFEA3B5
:10090000E078D2A60608F6800EE4FDAF0B12146163
:1009100078D2A60608A60778D0E6FE08E6FF08E625
:10092000FC08E6FDD39FEC9E40091215EAE0240A7C
:10093000F0800EC3ED9FEC9E50071215EAE024F6FE
:10094000F01215EAE0FFD3648094E4400D1215D94B
:10095000E475F0011201D30209ADC3EF6480941C69
:100960005050AF0B12152BEF64017032E522C31308
:10097000FEE52313FF1215D9E0FCA3E0C39FFFECB3
:100980009EFE1215FBFCA3E0FDC39FEC9E75F012CA
:10099000E50B500F1215DEECF0A3EDF0800F75F0B3
:1009A00012E50B1215DE74FFF5F01201D31215EAF1
:1009B000E4F022E478CFF678CFE6FFC39524400335
:1009C000020A8A75F012EFA42408F582E5F03400DB
:1009D000F583E0FEA3E078D2A60608F618E6FE0846
:1009E000E6FF2523FDE5223EFC78D0F608EDF6C3B0
:1009F0009FEC9E500978CFE675F012020A7F120A2A
:100A00008BC006C007121A96121461AC06AD07D04F
:100A100007D006C3ED9FFFEC9EFE78D4F608EFF6F4
:100A2000C3EE64809480501418E6FE08E6FF7CFF55
:100A30007DFF12016C78D4A60608A60778EEE6FFC3
:100A4000C378D5E69F7480F5F0186695F0500D12C6
:100A50000A8BAA06AB07121A96121B0F121A9612CD
:100A600017E778D0E6FC08E6FDD3EF9DEE9C78CF43
:100A7000E675F0124009121A8AE04440F08005122F
:100A80001A8AE4F078CF060209B72278CFE6FF7D14
:100A9000011217E722E4F50DF50EF512F511F51028
:100AA000F50FF516F515F514F513F50BE50BC395D4
:100AB000244003020B5EE4F519F51A74FFF517F5EF
:100AC00018E4F516F515F514F513F50CE50C25E00D
:100AD00024EAF8E4F608F6050CE50CB402EEE4F5B9
:100AE0000CAF0B121762AB07AA06E50C25E024EA4F
:100AF000F8A60208A603E4FCFDE5162FF516E51599
:100B00003EF515ED3514F514EC3513F513050CE52C
:100B10000CC3940240CBAF16AE15AD14AC13E47BFE
:100B200002FAF9F812035B8F168E158D148C13E5FB
:100B30000B1215DBEEF0A3EFF0E4F50CE50CC3951A
:100B4000335016AC15AD16AF0B1212B8AC15AD166E
:100B5000AF0B12110F050C80E3050B020AAC228DBE
:100B60000D75F012EDA42408F582E5F03400F5834C
:100B7000E0FCA3E0FD78D3ECF608EDF678CFA62AEA
:100B800008A62B08A62508A626C3EF9DEE9C5008B4
:100B9000E478D9F608F6801178D3E6FC08E6FDC3C0
:100BA000EF9D78DAF6EE9C18F612191E548078D56F
:100BB000760008F6AF0D121BF178D7760008A6076D
:100BC00078D6E6184670211219305005AF0D021C78
:100BD00002D378D01219334036AF0D1215A2EF6050
:100BE0002E12191E4480F02278D6E6640118467051
:100BF0001ED31219314005AF0D021BFA12193050E5
:100C00000EAF0D121705EF600612191E547FF02269
:100C100001240901330202221388012702022D0058
:100C200019023100FA022F00C8012101012C000233
:100C30002A138802250BB802282EE04100B10001DA
:100C40004900202C67FF13C209FF13CB09FF13CF04
:100C500009FF13D709FF13DF09FF13E609FF13ED9F
:100C600009FF13F409FF13FA01FF140301FF140A2B
:100C700001015600015701011D00011E00011F0066
:100C8000013FA0014800C100C181025800000236A6
:100C90000000023D0000013B00013A000135000167
:100CA0003C0001340001380001390002E800000274
:100CB0005A000002E1000000121B2B78E7E6FF64F7
:100CC000036018EF64016013EF64026003020D5EBD
:100CD0009000B1E064016003020D5EE49000B1F0A9
:100CE00078E7E6FF64026005EF6401704012183592
:100CF000EF702CE52CB4012C055BE55BAE5A70025D
:100D0000055A14C39530EE952F401978E77603E421
:100D1000F55AF55B121C65121C381210998005E417
:100D2000F55AF55B78E7E6B401030219DD78E7E6EA
:100D3000640370871219DD120D5FEF601B121C62D5
:100D4000121C32E52178E760057602020CBB7601C1
:100D5000E4F55AF55B020CBB121C65020CBB22E4E5
:100D6000F50C12187C8E0A8F0B78E9E62526FF1801
:100D7000E63525FED3E50B9FE50A9E40037F012261
:100D8000E4FFEFC39533504DEF25E024E3F8E6FC94
:100D900008E6FD78E8E6FA08E6FBD3ED9BEC9A401E
:100DA00004050C8009C3ED9BEC9A5002150CD3E5A9
:100DB0000C64809480400A78E906E6187014068076
:100DC00011C3E50C64809480500878E9E616187029
:100DD00001160F80ADE53314FFEFD394004019EFF7
:100DE00025E024E1F8E6FC08E6FDEF25E024E3F841
:100DF000A60408A6051F80E178E3A60A08A60B7FD3
:100E00000022E4F508F5091215681219597F3F12FE
:100E10001A387F407E1F7D007C001200267F3F1223
:100E20001A4E120CB8121AC112102230013E1213BF
:100E30006CEF4E700C121C6BEF7006E53F54606057
:100E40002B121C4A8E088F09EFF547E508F546126C
:100E50001C688F45E53F4480F544C201533F9FD253
:100E6000997F5A7E007D007C0012002630001DAF65
:100E700041121975E54030E007AD427F011216A519
:100E8000E54030E507AD437F201216A5E548D39431
:100E900020508F0548808B121C4F787FE4F6D8FDD8
:100EA0007581EF020EE1020E02E493A3F8E493A32E
:100EB0004003F68001F208DFF48029E493A3F8549C
:100EC00007240CC8C333C4540F4420C8834004F41F
:100ED00056800146F6DFE4800B0102040810204032
:100EE00080900C10E47E019360BCA3FF543F30E57A
:100EF00009541FFEE493A360010ECF54C025E060A7
:100F0000A840B8E493A3FAE493A3F8E493A3C8C574
:100F100082C8CAC583CAF0A3C8C582C8CAC583CA65
:100F2000DFE9DEE780BEE4F50AF50B7F05FE121B64
:100F30009EEF70127F06FE121B9EEF70097F07FE68
:100F4000121B9EEF60637D0575F012EDA42408F579
:100F500082E5F03400F583E0FEA3E0FF75F012EDCA
:100F6000A42404F582E5F03400F583E0FAA3E0FB65
:100F7000C39FEA9E402275F012EDA42408F582E595
:100F8000F03400F583E0FEA3E0FFC3EB9FEA9E256B
:100F90000BF50BE4350AF50A0DBD08ACD3E50B944F
:100FA0001EE50A94004002D322C322C0E0C0D075DF
:100FB000D000C000309847E548C3942040067548EB
:100FC00000751D00E51DC39404503085991FC2981B
:100FD0007440251DF8A61F051DC200E51DC394041D
:100FE000401C751D00E54030E704D2008003433FFC
:100FF00020E54030E608433F408003751D003099EE
:101000001AC299E51EC39404500C7444251EF8E6D8
:10101000F599051E8005751E00D201D000D0D0D0F4
:10102000E032E4F53AFFFE121B92EF6003433A010F
:101030007F017E00121B92EF6003433A027F047E21
:1010400000121B92EF6003433A047F087E00121BDC
:1010500092EF6003433A087F037E00121B92EF6019
:1010600003433A107F027E00121B92EF6003433A63
:1010700020E53A6535F53C853A35E53A6003E4F517
:101080003485363D85373E120F26500A1206818E72
:10109000368F37E4F534053422E4F50EF50DF50C02
:1010A000F50B78E8F608F6F50AE50AC39533501310
:1010B00012187CE50A25E024E3F8A60608A6070531
:1010C0000A80E6E4F50AE50AC395335027E50A25C8
:1010D000E024E3F8E6FE08E6FFE4FCFDE50E2FF56C
:1010E0000EE50D3EF50DED350CF50CEC350BF50B65
:1010F000050A80D2AF33AB07E4FAF9F8AF0EAE0DB4
:10110000AD0CAC0B12035B78E8A60608A607228C90
:101110001B8D1CE478CFF608F6EF75F012A42404BA
:10112000F9740035F008760108F608A601E53314D5
:1011300078D0F678D0E6D39400402CE6FD1211C3A7
:10114000860308E6FA08E6F98F828E83120214FFFE
:10115000AEF075F002EDA4F58285F083EE8FF0120B
:1011600002A378D01680CC78D1860308E6FA08E688
:10117000F9E51B851CF012028478CFE6FF22F0759A
:10118000F012EFA4240CF582E5F03400F58322750B
:10119000F012A42404F582E5F03400F58375F00222
:1011A0002275F012A42400F582E5F03400229000AC
:1011B0000B75F012EF12044FEE75F012A42583F5B3
:1011C00083E02224FFFFE434FFFEEF25E0FFEE334F
:1011D000FE082275F012A4240AF582E5F03400F529
:1011E0008322EF12044FECF0A3EDF022E478CCF66A
:1011F00078CCE6FFC39524505812152B78CEA6075D
:10120000E418F678CDE6FFC39403504075F005EF7F
:10121000A42491F582E5F03419F583E493FF08E600
:10122000B5072478CCE6FF08E675F005A42493F50D
:1012300082E5F03419F583740193FA740293F58210
:101240008A8312045F800578CD0680B778CC06804B
:101250009F22E4F50CE50CC395245029E4FDAF0C66
:101260001217E7E50C1214BBEEF0A3EFF075F012C5
:10127000E50CA42410F582E5F03400F583E4F0A336
:10128000F0050C80D0E524C39404500578EF7680F7
:1012900022E524C39408500578EF764022E524C364
:1012A0009410500578EF762022E524C3942078EF3F
:1012B0005003761022760822E478CFF6F9EF121167
:1012C000A1AF8208F608A607E5331478CFF678CFE9
:1012D000E6FFD39400402DEF1211C3E6FA08E6FBB7
:1012E0008A832FF582E5833EF583E0FEA3E0FF8B42
:1012F000828A8378CFE675F00212044FEEF0A3EFF6
:10130000F01680CA78D0E6FE08E6F5828E83ECF00F
:10131000A3EDF0AF012285A90BE549704EE5AE7053
:101320000675AEA575AEF17D087F05121AF97D0729
:101330007F06121AF97D807F04121AF975A9747D4F
:10134000C07F04121AF97F407E05EF1F70011EEF67
:101350004E70F77DC07F04121AF975B520850BA970
:10136000E5A930E7FB754EC075490122C3E5379505
:101370003EFFE536953DFED3EF94B4EE9400401168
:10138000E537953ECFE536953DCF2498CF34FEFE28
:1013900022C3E53E9537FFE53D9536FED3EF94B485
:1013A000EE94004011E537953ECFE536953DCF24CC
:1013B00068CF3401FE22C3E537953EFFE536953D03
:1013C000FE22424153454C494E4500524157005080
:1013D000524F434553530053494E474143540044F1
:1013E0004542414354005444454C544100455850F3
:1013F00056414C004E4F495345004E4F49534545C9
:1014000053540041435454485200494E41435454AC
:101410004852008F0CE4FFEFC395335018E50C12CF
:1014200011A1F58375F0021211E2E50C12118F1271
:1014300011E20F80E275F012E50CA4240BF582E5B1
:10144000F03400F583E4F0E528C4F854F0C8E52949
:10145000C4540F48FFE50C1211D3EFF0AF0C021685
:10146000748F0C8D0DED3395E0FCD3ED95337480C6
:10147000F86C98401975F012EFA424FEF582E5F09F
:1014800034FFF58375F002E53312044F801BED2520
:10149000E0FFEC33FE75F012E50C1211A4F583E5C4
:1014A000822FF582E5833EF583E0FEA3E0FF22EE86
:1014B000F0A3EFF09000A2A3E0FF2275F012A424A5
:1014C0000EF582E5F03400F58322E0FF9000A5E000
:1014D0009F9000A4E09E22FC9000A5E09D9000A4B7
:1014E000E09C22A3E090000E75F01202044FE53B51
:1014F00013B39280E53BC31313B392A7E53B1313D9
:10150000543F13B39296E53B131313541F13B39236
:1015100097E53BC4540F13B39290E53BC4135407B3
:1015200013B392878538FC8539EA228F0CE4FF7566
:10153000F005EFA42492F582E5F03419F583E493E5
:10154000FDC378E2E69D18E69400501175F005EFB2
:10155000A42491F582E5F03419F58380070FBF03C9
:10156000CE90199BE493FF2285A70A121B86121CBA
:1015700011121C18121C0A121BC1121B52121B45FD
:10158000121C5B12189E121BDF121C53121A7712C8
:1015900019AC121BCB121C57121C3E121C1F850AC1
:1015A000A72212117FE0FEC4540FFD640F60010DED
:1015B00012117FEE540F12117EE0FEEDC454F0FCC8
:1015C000EE4CF0ED640F6004EDB5270A12117FE0D8
:1015D000540FF07F01227F0022E50B75F012A42446
:1015E00008F582E5F03400F5832275F012E50BA4CE
:1015F000240DF582E5F03400F5832275F012E50B39
:10160000A4240EF582E5F03400F583E022E4FFEF38
:10161000C39524500C75F012EF121A8AE4F00F8073
:10162000EEE528C4F854F0C868FEE529C4540F4814
:10163000FFD394FFEE940078EE400376FF22A607D6
:1016400022E478CCF678CCE6FFC395245025121717
:101650006278CDEEF6FC08EFF6FD78CCE6FF1212CC
:10166000B878CCE6FF08E6FC08E6FD12110F78CC4E
:101670000680D222EF901C7793FEEF75F003A4242E
:10168000B3F8A606EF901C6E93FEEF75F003A4244A
:10169000B1F8A606EF901C8093FEEF75F003A4242A
:1016A000B2F8A60622EF30E0138D38ED6005433B1B
:1016B000018003533BFEBDFF0353DABFEF30E51358
:1016C0008D39ED6005433B208003533BDFBDFF03B5
:1016D00053DBBF0214EEAFB5EF30E203754D01EFFF
:1016E00030E303754C01EF30E103754B01EF30E45B
:1016F000047FFFDFFE75B520E54D6006E4F54D7F04
:1017000001227F002212117FE0FE540FFD640F6062
:10171000010D12117FEE54F012117EE04DF0ED64D8
:101720000F6004EDB5270A12117FE054F0F07F013D
:10173000227F0022E4FFEFC395245025EF121920E9
:10174000547FF075F012EFA4240CF582E5F034001C
:10175000F583E4F075F012EF12192354BFF00F80F7
:10176000D522AE07EE75F003A424B1F8E6FF121CF3
:101770005FEE75F003A424B3F8E6FF121C26EE75A5
:10178000F003A424B2F8E6FF121C2C12187C22AF3E
:10179000A7E4F5A79000ABE5A9F075A914E5A93079
:1017A000E7FB9000ACE5F1F0A3E5F2F0A3E5E2F091
:1017B000E4F5F1F5F275E2C08FA7228F108E0F8D40
:1017C0000E8C0D75AC14E54E54F7F5AD0075AC18E4
:1017D0008510AD00850FAD00850EAD00850DAD0007
:1017E00075AC14854EAD22EDD3953375F012EF40F4
:1017F00012A42402F582E5F03400F58375F002E5C9
:10180000338004121192ED12044FE0FEA3E0FF2298
:1018100043F14E43F23E43A44E5380B153F1B153D2
:10182000A4B143804E43A53E5390C153F2C153A58A
:10183000C143903E22E4F50CF50AF50BE50BC39588
:10184000245013AF0B7E00121B9EBF0105750C01C7
:101850008004050B80E6AF0C22E478CCF678CCE669
:10186000FFC39402501575F003EFA424A0F582E5A0
:10187000F03419121B7978CC0680E22275B08853B7
:10188000B0DF43B01075CE0175B540E5B030E5FB73
:1018900085EE1B85ED1CE4F5B0AE1BAF1C2275ACCC
:1018A0000675AD07E5AC20E7FB75AC0875AD14E532
:1018B000AC20E7FB75AC0475AD80E5AC20E7FB22FE
:1018C000AFA7E4F5A79000ABE0F5A9E5A930E7FBE9
:1018D0009000ACE0F5F1A3E0F5F2A3E0F5E28FA70C
:1018E000228E0B8F0C12193CAE0BAF0C7C7C7D1A38
:1018F000120461E47BE87A03F9F812035B0217BB78
:10190000E4F50B75F003E50BA424A6F582E5F034AD
:1019100019121B79050BE50BC3940240E622E50D75
:1019200075F012A4240BF582E5F03400F583E02273
:10193000C378D279DAE79619E718962275AC10E4E5
:10194000F5AD00F5AD00F5AD00F5AD00121AF27F72
:1019500004121BB6EF20E1F722E59154045391FBEA
:101960007595F975947D7593F975927D439104424F
:101970009143E6802253073F8F3BE4F538EF30E098
:10198000037538FFE4F539EF30E5037539FF0214CC
:10199000EE0105FF1BAA020AFF1B1D0378FF1B1D9A
:1019A000FF09B3FF051CFF160DFF1252E591540409
:1019B0005391FB7595F975947D7593F975927D43F7
:1019C0009104429122121A0B120022120A9512005F
:1019D00071121900121734121B5F021BD512178FD8
:1019E00053B6BFE5A930E7FB75B58C43B640121678
:1019F000D60218C01201E9C39468E5F09401400AC8
:101A000074FE75F09812024C80EA22E4F50BE50BA7
:101A1000C39524500CE4FDFCAF0B121413050B808E
:101A2000ED2275B08875D24E75D33E75AA8A53AF34
:101A3000F843AF02E4F5F32253073FEF423B30E0B7
:101A4000037538FFEF30E5037539FF0214EEEFF44C
:101A5000523BEF30E003E4F538EF30E503E4F539CD
:101A60000214EEE4F50AE50AC395245009AF0A1200
:101A700008CC050A80F022AF885388AF758DA9EF96
:101A80005440FEEF54104E428822A4240BF582E508
:101A9000F03400F5832278CFE6FFE4FD22121AE34A
:101AA000121316AF32AE311218E17F1C021B011265
:101AB0001AE3121316AF2EAE2D1218E17F1C021B73
:101AC000011216411218591211EC1207D6120072A7
:101AD000021A63C0E053917F0559E5597002055819
:101AE000D0E03275B520E4F54FF54DF54CF54AF5EB
:101AF0004B22E54E4402FD7F04EF4410F5AC8DAD62
:101B000022EF54FC424EE54E4FFD7F04021AF9EFDE
:101B100012118FED12044FEAF0A3EBF022AD07EDA6
:101B20001214BBE0FEA3E0FF020B5F1216D6EF60BB
:101B3000069000B17401F02243F14E43F23E53F19E
:101B4000B153F2C122E4F5A775E3C075E10175E276
:101B5000022275F2C175D5FF75A70F759B0122E5AD
:101B60002178E7B40103760222760122EF1211D325
:101B7000E075F010A4FFAEF022F583740193FA74BF
:101B80000293F902045BE4F5A753D9BFF5D943D812
:101B900040221211AE30E6037F01227F0022121193
:101BA000AE30E7037F01227F00228F0CE4FD121785
:101BB000E7AD0C020B5FEF4490F5AC000000AFAD59
:101BC0002275A41075F1B175D44E22758E087589F1
:101BD000204388402278DB12043600000000227582
:101BE000A904E5A930E7FB22E47B08FAF9F802032F
:101BF0005B12117FE0C4540FFF2212117FE054F0FA
:101C0000F02212117FE0540FF02253DF7F75DC08C1
:101C10002253DF7F75DA422253DF7F75DB42227564
:101C2000A89075B81022EF5407F5AF22EF5407F5CE
:101C3000AA22121810020003121B38021A22121CC8
:101C4000440219C5121C32021C62AE36AF37225351
:101C5000D9BF2275B640224398102275EF06228F15
:101C6000AB22021AAF021A9DAF3A22AF3C22020108
:101C70000306090A0B0C0D070707070707070707E5
:091C80000505050505050505052E
:00000001FF
